:020000040800F2
:10000000180B0020D50B0008890A00088B0A00088D
:100010008D0A00088F0A0008910A000800000000FD
:10002000000000000000000000000000930A00082B
:10003000950A000800000000970A0008990A0008C5
:10004000F10B0008F50B0008F90B0008FD0B000888
:10005000010C0008050C0008090C00080D0C000834
:10006000110C0008150C0008190C00081D0C0008E4
:10007000210C0008250C0008290C00082D0C000894
:10008000310C0008350C0008390C00083D0C000844
:10009000410C0008450C0008490C00084D0C0008F4
:1000A000510C00089B0A0008550C0008590C000868
:1000B000E90A00085D0C0008610C0008650C0008E6
:1000C000690C00086D0C0008710C0008750C000824
:1000D000790C00087D0C0008810C0008850C0008D4
:1000E000890C00088D0C0008910C000800F0070036
:1000F000C0F1070310B4052B28BF0423041D072CEF
:1001000034BF0020C01E012404FA03F35B1E194013
:10011000814004FA00F0401E104010BC08437047B4
:100120002DE9F043AD4EDFF8B88287B0306840F07B
:100130000100306003AB316801F00101009102AAB7
:100140000098716841F0805171602221706800F060
:10015000805000900098029108F58670019008F197
:100160000401009102A800F061F9DFF878929E483E
:10017000D9F800204FF6FF010A400243C9F80020D9
:100180009A48026822F0E0620260016841F0007162
:10019000016000F0DEF802A80021002200230EC05A
:1001A00006C03568924F45F0100535603068914DB6
:1001B00000F0100000900098316841F0200131609B
:1001C000326802F0200200920098316841F0040188
:1001D00031604FF40051326802F0040200924FF493
:1001E0008072009869617A6101228349029107A8AF
:1001F0000221049103920593019002A900912A46DD
:100200007E4B284600F0F2F97D49029101220392CB
:1002100002210491002207A80592019002A90091F1
:100220003A46784B384600F0E1F902A80021002256
:1002300000230EC006C03768734B47F40067376071
:1002400047213068714F00F4006000900098ADF8CD
:10025000081007A8012104910392059206920190CB
:1002600002A900913A46384600F05CFA3868684CBA
:1002700040F0800038600022B8682040B860002359
:10028000796821F07001796002A9B86820F08000D7
:10029000B860F86840F00100F86000200DC105C1A9
:1002A000706840F001007060706800F0010000901C
:1002B00007A80099ADF808206421049105920393E2
:1002C000019002A94FF0804200911046514B00F07E
:1002D00029FA514E4FF08040016841F080010160E1
:1002E000826814408460002241684C4C21F0700107
:1002F0004160816821F0800181600021D9F800000F
:10030000C0F30220FFF7F2FE000120704FF00071F1
:1003100031600022D9F800000021C0F30220FFF76D
:10032000E5FE0001E0704FF0805131603A6842F024
:1003300001023A6002E0002088F80000E96881F4D8
:100340000051E96098F800000028F7D000F096F816
:10035000F1E710B532480168C908C90041F002014F
:100360000160016801F007010229FAD12D480168F6
:1003700041F48031016001688903FCD5426822F4B0
:100380007C1242F4E8124260016841F08071016021
:1003900001688901FCD5426822F0F00242604168A0
:1003A00021F4E06141F480614160416821F46051D1
:1003B000416041688908890041F00201416041685B
:1003C00001F00C010829FAD1174C204600F038FA48
:1003D0002046BDE8104000F03FBA0000181002406F
:1003E000000000200CED00E00003FA0504000140CD
:1003F0000008014000100140200020041C100140B2
:10040000010001041C080140542C0140002C014053
:10041000F8BFFFFF5400004000E100E019E400E0F5
:10042000002002400010024000A24A04F0B50C4631
:1004300011461A46059D069E031D88422CBF9A420E
:1004400000F038FA0368604F60493B6000200860A4
:1004500029462046431D324688422CBF9A4200F06E
:1004600029FA20685A495B4B0880002122795A48B2
:1004700002701980472259480280F0BD2DE9F041F1
:10048000524D57492C6801EBC400031D01F58472DD
:1004900088422CBF9A4200F00DFA51F83430012BFB
:1004A00023D833B9484803685B1E9C4234BF641CA0
:1004B0000024474B474E2C60012018800024474BF6
:1004C0003480232018800C1D2D6804EBC500431CCC
:1004D00088422CBF9A4200F0EDF900783E49414B2A
:1004E000087000221A70BDE8F0811F46BB1E4FF64F
:1004F000FD7C63454FF6FF7621D2431D88422CBF19
:100500009A4200F0D7F93248324BF719078000229F
:1005100032481A804726091D068011F834202E48DB
:10052000314B027000212F481970002226490270B9
:100530000B685B1E9C4240D32A60BDE8F081B84640
:10054000B0451ED9284F3B78DBB9214D431D2E8085
:1005500088422CBF9A4200F0ADF930461D4A1F4D2B
:10056000B8FBF0F010804723081D2B8010F83410E2
:10057000194A1C4B11700020187001213970BDE818
:10058000F081B0451ED918490878D8B13346B8FB78
:10059000F3F3C3EB03430E48A8EB030202804722A8
:1005A0000E4B0C481A8000260E4B06801E700E70F3
:1005B00005480168491E8C4203D2641C2C60BDE8CA
:1005C000F0812E60BDE8F081080300200C030020BC
:1005D0001003002012030020160300201403002043
:1005E0000400002000000020170300202DE9FC4F2C
:1005F00081460E4617469B460B99042430460C9ABA
:10060000031988422CBF9A4200F054F930680097D1
:100610000002030C93FAA3F0B0FA80F00B910C9255
:10062000019307460198F8407AD0C00776D5082F85
:1006300007D34FF00110A7F10801884040F080680F
:1006400003E040F2011000FA07F80B990C9A301DF4
:1006500000F1100388422CBF9A4200F02BF9009958
:10066000356909F10C0003195A4688422CBF9A4299
:1006700000F020F9D9F80C004FEA1821884391FACC
:10068000A1F1B1FA81F18D4098FAA8F10543C9F8BA
:100690000C50B1FA81F598FAA8F17368B1FA81F1BA
:1006A000890003FA01FA09EB1860009903198842DE
:1006B0002CBF9A4200F0FEF801680F22AB009A406E
:1006C00091434AEA010101607168012918BF0929B3
:1006D00024D198FAA8F2B2FA82F3026803259B00AB
:1006E00005FA03F39A4398FAA8F3B168B3FA83F3CF
:1006F0009B009940114398FAA8F2B2FA82F2920054
:1007000004FA02F201600368F168934398FAA8F2D0
:10071000B2FA82F292009140194301607F1C81E796
:10072000BDE8F68F2DE9F0430D461146079EDDF832
:1007300020901A46044600F1300388422CBF9A42AA
:1007400000F0B8F8DFF8A8802768444518BFB4F176
:10075000804F05D0274884421CBF27498C4214D1C2
:10076000314628464A4600F10C0388422CBF9A4283
:1007700000F0A0F8686827F07007074344451EBFE3
:10078000B4F1804F1B48844202D01B498C420DD1EA
:10079000314628464A4600F1100388422CBF9A424F
:1007A00000F088F8E86827F4407707433146284688
:1007B00027604A4600F10C0388422CBF9A4200F0A1
:1007C00079F8A868E06244452888A0620AD105F15A
:1007D0001000031D88422CBF9A4200F06BF8286974
:1007E00006490860606940F00100606108E00000AF
:1007F000002C01400004004000080040302C014063
:100800000020BDE8F08330B4002513E050F8042B3D
:10081000D30744BFA9F101039A18091F042942F81C
:10082000045BFAD213468C0744BF15809B1CC90792
:1008300048BF1D7050F8041B0029E7D130BC704739
:100840004FF47A720649B0FBF2F0401E4860002374
:100850008B600520086070470249086070470000FF
:1008600010E000E00C010020F0B58BB004460D460E
:1008700016461F466946284600F039F830B10099FF
:100880000A480991019902900A9101E008490291F0
:10089000119A10990494039205970695079608916A
:1008A00002A800F04BF80BB0F0BD00002A000009D0
:1008B000050000071FB582B0CDF804E0CDF800E0D8
:1008C000FFF7D2FF02B01FBD10F007010DD1DFF816
:1008D000681000E0896841B10A689042FAD34B6819
:1008E0001A449042F6D2012070470020704738B574
:1008F00005460C46AFF30080BDB12846FFF7E4FF84
:1009000098B1284600F0BBF80546DFF82820A96812
:100910008908091D00F04AF838B124B12868206020
:10092000696889086160012032BDAFF30080002052
:1009300032BD000010010020F002002000B50100CF
:100940000148ABBE00BD00001127000030B403F029
:10095000030303E0032B88BF0023401C884206D01A
:100960001C46631C0578145DA542F3D000E002E04C
:10097000002030BC7047012030BC704770B4821C2E
:10098000002303E0042B28BF0023521C041DA242B5
:1009900009D01C460E19631C1578B478A542F1D015
:1009A000002070BC7047012070BC7047F8B5054648
:1009B0000E46144600F045F8297B6A7B42EA012284
:1009C00090423AD1214605F10C00FFF7D7FFA0B3C2
:1009D000AF682A79A919BF08E81902F00302032AAF
:1009E0001DD1A7F11003042B0AD2281D224638443A
:1009F00001B08008BDE8F040C3F104038000A5E722
:100A0000002203E0042A28BF0022401C884216D09E
:100A100013465A1C0578E35C9D42F3D00DE000229A
:100A200003E0042A28BF0022401C884207D0134656
:100A30005A1C0578E35C9D42F3D00020F2BD0120F2
:100A4000F2BD024670B44FF6FF700C210D4B12F848
:100A5000014B85B2260986EA253633F8165004F094
:100A60000F04491E85EA0015A8B284EA203433F841
:100A7000140080EA0510EAD180B270BC70471038CB
:100A8000704700006C0B0008FEE7FEE7FEE7FEE79C
:100A9000FEE770477047704770470C490C480A885A
:100AA0000C4BC2616FF0010C19880B4A016213886C
:100AB0000A4983610A780A4BD24312021A60012163
:100AC000084A1170C0F800C07047000010030020F1
:100AD000102C0140120300201403002016030020F4
:100AE0000C08014000000020704730B501688468A0
:100AF0004218416802EB5103C9070BD54C4409E089
:100B000012F9011B12F8015B002904F8015B05D5FD
:100B1000491CF9D19A42F3D10C3030BD491EF1D5B0
:100B2000F8E7000010B5074979441831064C7C44B9
:100B3000163404E00A68081D114488470146A142A2
:100B4000F8D110BD0800000024000000BBFCFFFF2E
:100B5000E801000030010020000000008FFFFFFFCF
:100B600038010000200100000000002000002110DA
:100B7000422063308440A550C660E7700881299107
:100B80004AA16BB18CC1ADD1CEE1EFF100F00DF80F
:100B9000002801D0FFF7C6FFAFF300800020AFF3BD
:100BA0000080FFF7BDFA00F002F80120704700F066
:100BB00001B800000746384600F002F8FBE70000E5
:100BC00080B5AFF30080024A11001820ABBEFBE7EE
:100BD000260002000148804701480047950C0008A4
:100BE000E50B0008AFF30080AFF30080FFF7CEFF06
:100BF000FFF7FEBFFFF7FEBFFFF7FEBFFFF7FEBF29
:100C0000FFF7FEBFFFF7FEBFFFF7FEBFFFF7FEBF18
:100C1000FFF7FEBFFFF7FEBFFFF7FEBFFFF7FEBF08
:100C2000FFF7FEBFFFF7FEBFFFF7FEBFFFF7FEBFF8
:100C3000FFF7FEBFFFF7FEBFFFF7FEBFFFF7FEBFE8
:100C4000FFF7FEBFFFF7FEBFFFF7FEBFFFF7FEBFD8
:100C5000FFF7FEBFFFF7FEBFFFF7FEBFFFF7FEBFC8
:100C6000FFF7FEBFFFF7FEBFFFF7FEBFFFF7FEBFB8
:100C7000FFF7FEBFFFF7FEBFFFF7FEBFFFF7FEBFA8
:100C8000FFF7FEBFFFF7FEBFFFF7FEBFFFF7FEBF98
:100C9000FFF7FEBF70470000FC000001F900000AEA
:100CA000FD000001FD000005F900000FFD0000013E
:100CB000FD00003DF900043E2A000001FD0001CEC8
:100CC00003FA00046A2B000001FD00000FF9000484
:100CD000042D000001FD0001C102FA00005BFD00CF
:100CE0000001FD0001822EFA00048C2E000001FD9F
:100CF00000014B2FFA00000AFD000001FD00011465
:100D000030FA000014FD00000184000124F4F70013
:100D10000F2B3284179783BC4F3F2244FCE529EF09
:080D200031FD0001400AFD0055
:0400000508000BE5FF
:00000001FF
