:020000040800F2
:1000000008080020310800084B0700084D070008C9
:100010004F070008510700085307000800000000C0
:10002000000000000000000000000000550700086C
:100030005707000800000000590700085B07000888
:100040004D08000851080008550800085908000824
:100050005D080008610800086508000869080008D4
:100060006D08000871080008750800087908000884
:100070007D08000881080008850800088908000834
:100080008D080008910800089508000899080008E4
:100090009D080008A1080008A5080008A908000894
:1000A000AD0800085D070008B1080008B5080008A1
:1000B0007D070008B9080008BD080008C10800084D
:1000C000C5080008C9080008CD080008D1080008C4
:1000D000D5080008D9080008DD080008E108000874
:1000E000E5080008E9080008ED08000810F007001E
:1000F000DFF8B0331A684FF6FF010A40DFF8A813A3
:1001000051EA00210A431A607047DFF8980300683B
:10011000C0F302207047010049B2002909D401222E
:1001200010F01F018A40DFF8841340B2400941F803
:1001300020207047020052B2002A04D40901DC4A90
:1001400040B2115407E00901DA4A40B210F00F0042
:10015000104400F8041C704710B410F00700D0F1F0
:100160000703052B01D3042301E0D0F10703041D8D
:10017000072C01D2002000E0C01E012414FA03F372
:100180005B1E1940814014FA00F0401E10400843E5
:1001900010BC7047C848016851F480310160704755
:1001A000C5480068400C10F001007047C3490A6858
:1001B00092089200104308607047C048006810F031
:1001C0000C007047BD490A6832F0F0021043086025
:1001D0007047BA490A6832F4E06210430860704719
:1001E000B6490A6832F46052104308607047B2485A
:1001F000016851F0807101607047AF480068400E9F
:1002000010F001007047AD4A136833F47C1310F40A
:100210004030184308431060704781B0A8490A680D
:1002200002430A60096808400090009801B07047D6
:1002300081B0A4490A6802430A6009680840009036
:10024000009801B07047A0490A68D208D200104354
:10025000086070479C48006810F00700704701680C
:1002600051F0010101607047016851F080010160A7
:1002700070478368954A134019438160704742680C
:1002800032F07002114341607047816831F08001A3
:1002900081607047C16851F00101C1607047C1F3CE
:1002A0000F21416170478A48016831F0E0610160C7
:1002B000016851F000710160704780B50120FFF7BF
:1002C000B7FF5FF08050FFF7A8FF0320FFF70EFF96
:1002D000FFF7E9FF00F00CF800F0B1F800F057F874
:1002E00000F082F800F037F87A48FFF7B8FFFEE731
:1002F00010B50220FFF7A7FFFFF7ACFF0228FBD1E4
:10030000FFF748FFFFF74CFF0128FBD15FF4E01136
:100310005FF48030FFF777FFFFF769FFFFF76DFFAE
:100320000128FBD10020FFF74DFF4FF48060FFF75D
:1003300050FF0020FFF754FF0220FFF737FFFFF7C1
:100340003CFF0828FBD1644C200000F0DBF82000C3
:1003500000F0DEF810BD80B5FFF7D7FE00220021C7
:10036000FFF7FAFE01001920FFF7E4FE1920FFF75E
:10037000D2FEFFF7CAFE00220021FFF7EDFE0100CA
:100380001C20FFF7D7FE1C20FFF7C5FE01BD18B5E6
:1003900085B06846142100F0C7F84FF40060FFF7FD
:1003A00047FF4720ADF80000002001900120029097
:1003B0000020039000200490464C6946200000F085
:1003C000C2F82000FFF750FF00212000FFF751FF87
:1003D00000212000FFF753FF2000FFF756FF200009
:1003E000FFF758FF06B010BD00B585B06846142170
:1003F00000F09AF80120FFF710FF0020ADF8000090
:1004000000200190642002900020039069465FF074
:10041000804000F098F85FF08040FFF725FF002152
:100420005FF08040FFF725FF00215FF08040FFF77D
:1004300026FF5FF08040FFF728FF05B000BDF0B554
:1004400085B06846142100F06FF81020FFF7F0FE29
:100450002020FFF7EDFE0420FFF7EAFE1F4E204F9D
:1004600039003000FFF71BFF1E4C1F4D29002000F4
:10047000FFF715FF00970120019002200290002055
:1004800003906946300000F0F5F8009501200190D6
:1004900002200290002003906946200000F0EAF854
:1004A00005B0F0BD0CED00E00000FA0500E100E051
:1004B00000E400E018ED00E00010024004100240EB
:1004C0001C1002401810024000200240F8BFFFFF3D
:1004D00004000140002C014000A24A040010014029
:1004E000200020040008014001000104B0FBF1F0ED
:1004F000401E094908600020084908600520084995
:100500000860704780B54FF47A71FFF7EFFF01BDC7
:10051000044908607047000014E000E018E000E0C3
:1005200010E000E000000020002200F0E5B800002C
:1005300081627047C162704701637047416951F041
:1005400001014161704770B504000D002168DFF8BA
:100550007060B4420AD0B4F1804F07D0DFF8640075
:10056000844203D0DFF86000844203D131F070018F
:1005700068680143B4420AD0B4F1804F07D0DFF875
:100580004400844203D0DFF84000844203D131F4B8
:100590004071E86801432160A9682000FFF7CAFFA5
:1005A00029882000FFF7C4FFB44203D12969200045
:1005B000FFF7C2FF2000FFF7C1FF002070BD000061
:1005C000002C0140000400400008004070B410EB13
:1005D000116091FAA1F3B3FA83F391FAA1F1B1FAA0
:1005E00081F405680F26DBB299008E40B543E4B272
:1005F000A1008A402A43026070BC704770B410EBBF
:10060000116091FAA1F3B3FA83F391FAA1F1B1FA6F
:1006100081F405680326DBB299008E40B543E4B24D
:10062000A1008A402A43026070BC704770B410EB8E
:10063000116091FAA1F3B3FA83F391FAA1F1B1FA3F
:1006400081F405680426DBB299008E40B543E4B21C
:10065000A1008A402A43026070BC7047C36833EA35
:100660001123090A91FAA1F1B1FA81F18A401A43E2
:10067000C26070472DE9F04104000D002E6836027B
:10068000360C96FAA6F0B0FA80F72EE05FF0011073
:100690003900B1F1080810FA08F858F0806809E04C
:1006A0003000F840C0071FD5082FEFD240F20118E4
:1006B00018FA07F82A6941462000FFF7CFFF6A6859
:1006C00041462000FFF782FF6868012802D0686871
:1006D000092809D1AA6841462000FFF78FFFEA6880
:1006E00041462000FFF7A2FF7F1C3000F8400028A1
:1006F000D6D10020BDE8F08100B500BF13009646BA
:100700009446103928BFA0E80C50FAD85FEA417C23
:1007100028BF0CC048BF40F8042BC90728BF20F8E9
:10072000022B48BF00F8012B00BD00007FF0010143
:1007300001617047C268C1F30F2111EA020331EA77
:10074000020252EA034202617047FEE7FEE7FEE75B
:10075000FEE7FEE7704770477047704780B5044971
:100760000448FFF7E7FF0448FFF7E0FF01BD000082
:100770000100010400080140002C0140704730B422
:1007800050F8041B79B10268436802440830DC0762
:1007900044BFA9F10104E31852F8045B43F8045B79
:1007A000091FF9D1ECE730BC7047000010B50749CC
:1007B00079441831064C7C44163404E00A68081D5C
:1007C000114488470146A142F8D110BD080000003D
:1007D00018000000ABFFFFFF040000001401000040
:1007E000000000200000000000F00DF8002801D0FB
:1007F000FFF7DCFFAFF300800020AFF30080FFF7CE
:100800005CFD00F002F80120704700F001B8000024
:100810000746384600F002F8FBE7000080B5AFF36A
:100820000080024A11001820ABBEFBE72600020040
:100830000148804701480047F508000841080008C2
:10084000AFF30080AFF30080FFF7CEFFFFF7FEBFEE
:10085000FFF7FEBFFFF7FEBFFFF7FEBFFFF7FEBFCC
:10086000FFF7FEBFFFF7FEBFFFF7FEBFFFF7FEBFBC
:10087000FFF7FEBFFFF7FEBFFFF7FEBFFFF7FEBFAC
:10088000FFF7FEBFFFF7FEBFFFF7FEBFFFF7FEBF9C
:10089000FFF7FEBFFFF7FEBFFFF7FEBFFFF7FEBF8C
:1008A000FFF7FEBFFFF7FEBFFFF7FEBFFFF7FEBF7C
:1008B000FFF7FEBFFFF7FEBFFFF7FEBFFFF7FEBF6C
:1008C000FFF7FEBFFFF7FEBFFFF7FEBFFFF7FEBF5C
:1008D000FFF7FEBFFFF7FEBFFFF7FEBFFFF7FEBF4C
:1008E000FFF7FEBFFFF7FEBFFFF7FEBFFFF7FEBF3C
:0608F0000024F400704733
:0400000508000841A6
:00000001FF
