:020000040800F2
:10000000080A0020BD0C0008590B00085B0B000813
:100010005D0B00085F0B0008610B0008000000008A
:10002000000000000000000000000000630B00085A
:10003000650B000800000000670B0008690B000852
:10004000D90C0008D90C0008D90C0008D90C0008FC
:10005000D90C0008D90C0008D90C0008D90C0008EC
:10006000D90C0008D90C0008D90C0008D90C0008DC
:10007000D90C0008D90C0008D90C0008D90C0008CC
:10008000D90C0008D90C0008D90C0008D90C0008BC
:10009000D90C0008D90C0008D90C0008D90C0008AC
:1000A000D90C00086B0B0008D90C0008D90C00080B
:1000B000B90B0008D90C0008D90C0008D90C0008AD
:1000C000D90C0008D90C0008D90C0008D90C00087C
:1000D000D90C0008D90C0008D90C0008D90C00086C
:1000E000D90C0008D90C0008D90C000800F0070052
:1000F000C0F1070310B4052B28BF0423041D072CEF
:1001000034BF0020C01E012404FA03F35B1E194013
:10011000814004FA00F0401E104010BC08437047B4
:100120002DE9F84FD54CD64DD6B0206840F00100EF
:100130002060216801F0010100910098616841F0A0
:10014000805161604FF6FF01606800F080500090C0
:1001500000982A68CB480A4002432A60CA480268CD
:1001600022F0E0620260016841F00071016000F07D
:1001700040F94721D5A2C54EF1800120708007A823
:1001800092E8885F80E8885F56AA0FA90FA800F060
:10019000ADF951980FA901EBC009401C51900827F7
:1001A0004846C3190DF11C0856AA88422CBF9A4232
:1001B00000F0FCF9DDE90701C9E9000151990FA838
:1001C00000EBC100491C5191C3190FA988422CBFF3
:1001D0009A4200F0EBF9D8E90223C0E900235199D3
:1001E0000FA800EBC100491C5191C3190FA956AAD1
:1001F00088422CBF9A4200F0D9F9D8E90423C0E91B
:10020000002351990FA800EBC100491C5191C3195B
:100210000FA956AA88422CBF9A4200F0C7F9DDE91F
:100220000D23C0E9002302A8002100278C46A0E886
:10023000821082C02068964F40F0100020604FF47A
:100240008073206800F0100000900098216841F051
:1002500020012160226802F02002009200982168AB
:1002600041F0040121604FF40051226802F00402C1
:1002700000920098874A51617B610123864902916F
:1002800007A8022104910393019002A9CDF814C09C
:1002900000911046814B00F093F9814902910122AF
:1002A000039202210491002207A80592019002A95D
:1002B00000913A467B4B384600F082F902A80021B3
:1002C000002200230EC006C02768774B47F4006762
:1002D000276047212068754F00F400600090009867
:1002E000ADF8081007A80121049103920592069227
:1002F000019002A900913A46384600F0FDF93868AD
:10030000DFF8AC8140F0800038600022B86808EA6D
:100310000000B8600023796821F07001796002A9BB
:10032000B86820F08000B860F86840F00100F8601C
:1003300000200DC105C1606840F001006060606888
:1003400000F00100009007A80099ADF80820642192
:10035000049105920393019002A94FF0804200910D
:100360001046544B00F0C8F9534C4FF080400168E0
:1003700041F080010160826808EA02018160002288
:100380004168DFF8388121F070014160816821F017
:100390008001816000212868C0F30220FFF7A6FEDB
:1003A000000120704FF00071C8F80010002228688A
:1003B0000021C0F30220FFF799FE0001E0704FF02A
:1003C0008051C8F8001051AC3A6842F001023A601E
:1003D00030780028FCD056AA0FA90FA800F0FEF92B
:1003E000208961897080B1800021A089F0803170FE
:1003F000EEE710B532480168C908C90041F00201B2
:100400000160016801F007010229FAD12D48016855
:1004100041F48031016001688903FCD5426822F40F
:100420007C1242F4E8124260016841F08071016080
:1004300001688901FCD5426822F0F00242604168FF
:1004400021F4E06141F480614160416821F4605130
:10045000416041688908890041F0020141604168BA
:1004600001F00C010829FAD1174C204600F082FA5D
:100470002046BDE8104000F089BA00001810024084
:100480000CED00E00003FA0504000140FC0100202F
:100490000008014000100140200020041C10014011
:1004A000010001041C080140542C0140002C0140B3
:1004B000F8BFFFFF5400004019E400E000E100E055
:1004C000002002400010024000A24A040500000083
:1004D00001000000640000000000000005000000B2
:1004E00001000000080000000000000030B50446D4
:1004F00004F5847083B000F1120388422CBF9A4245
:1005000000F054F80125058100234725837303601B
:100510004360038243818581019102920094694680
:1005200007C903B030BD30B4002513E050F8042BE8
:10053000D30744BFA9F101039A18091F042942F8FF
:10054000045BFAD213468C0744BF15809B1CC90775
:1005500048BF1D7050F8041B0029E7D130BC70471C
:10056000F0B58BB004460D4616461F466946284630
:1005700000F027FA30B100990A48099101990290D8
:100580000A9101E008490291119A1099049403928A
:10059000059706950796089102A800F039FA0BB066
:1005A000F0BD00002A000009050000071FB582B059
:1005B000CDF804E0CDF800E0FFF7D2FF02B01FBD98
:1005C0002DE9FC4F81460E4617469B460B990424A5
:1005D00030460C9A031988422CBF9A42FFF7E6FF77
:1005E000306800970002030C93FAA3F0B0FA80F091
:1005F0000B910C92019307460198F8407AD0C007FE
:1006000076D5082F07D34FF00110A7F108018840D5
:1006100040F0806803E040F2011000FA07F80B99FF
:100620000C9A301D00F1100388422CBF9A42FFF74C
:10063000BDFF0099356909F10C0003195A4688423B
:100640002CBF9A42FFF7B2FFD9F80C004FEA1821ED
:10065000884391FAA1F1B1FA81F18D4098FAA8F19D
:100660000543C9F80C50B1FA81F598FAA8F17368FE
:10067000B1FA81F1890003FA01FA09EB18600099D7
:10068000031988422CBF9A42FFF790FF01680F229E
:10069000AB009A4091434AEA010101607168012967
:1006A00018BF092924D198FAA8F2B2FA82F3026895
:1006B00003259B0005FA03F39A4398FAA8F3B1685F
:1006C000B3FA83F39B009940114398FAA8F2B2FA67
:1006D00082F2920004FA02F201600368F168934327
:1006E00098FAA8F2B2FA82F292009140194301609E
:1006F0007F1C81E7BDE8F68F2DE9F0430D461146DA
:10070000079EDDF820901A46044600F13003884227
:100710002CBF9A42FFF74AFFDFF8A88027684445BC
:1007200018BFB4F1804F05D0274884421CBF274929
:100730008C4214D1314628464A4600F10C038842C7
:100740002CBF9A42FFF732FF686827F07007074313
:1007500044451EBFB4F1804F1B48844202D01B4960
:100760008C420DD1314628464A4600F1100388429A
:100770002CBF9A42FFF71AFFE86827F44077074337
:100780003146284627604A4600F10C0388422CBFB8
:100790009A42FFF70BFFA868E06244452888A062F0
:1007A0000AD105F11000031D88422CBF9A42FFF7C1
:1007B000FDFE286906490860606940F0010060613B
:1007C00008E00000002C0140000400400008004048
:1007D000302C01400020BDE8F08300002DE9F04FEF
:1007E000814609F5867000F10B0388422CBF9A42BE
:1007F000FFF7DCFE09F584750426A87BF8B12846CE
:1008000088422CBF9A42FFF7D1FE6F6809EBC70000
:10081000831988422CBF9A42FFF7C8FE03684FF63F
:10082000FF70B3FBF0F0C3185B1E2B810023AB738A
:100830002868401E87423ABF7F1C6F606B606F68FC
:1008400009EBC7084046831988422CBF9A42FFF73C
:10085000ADFE0368012B00EB06032ED888422CBFA7
:100860009A42FFF7A3FE006878B9284600F10E030C
:1008700088422CBF9A42FFF799FE2868401E8742A3
:1008800039BF7F1C6F600020686001232B8100202E
:10089000688123236E68AB8109F1040000EBC60078
:1008A000431C88422CBF9A42FFF780FE00783049F3
:1008B0000870761C6E60BDE8F08F88422CBF9A42AB
:1008C000FFF774FE00680124801E4FF6FD73984206
:1008D000DFF89CB04FF6FF7A2CD2284600F10E03C9
:1008E00088422CBF9A42FFF761FE40468319884236
:1008F0002CBF9A42FFF75AFE00685044288100231B
:100900006B814720A88109F1040303EBC700031999
:1009100088422CBF9A42FFF749FE00788BF800000E
:100920002968491E8F4227BF002068607F1C6F60C6
:10093000BDE8F08F40468319A5F808A088422CBF77
:100940009A42FFF733FE00685346B0FBF3F36B8126
:1009500009F1040303EBC700031988422CBF9A4234
:10096000FFF724FE00788BF80000AC73BDE8F08F31
:10097000040200204FF47A720649B0FBF2F0401EE8
:10098000486000238B6005200860704702490860BA
:100990007047000010E000E00000002010F00701A8
:1009A0000DD1DFF8681000E0896841B10A68904213
:1009B000FAD34B681A449042F6D2012070470020C7
:1009C000704738B505460C46AFF30080BDB12846E8
:1009D000FFF7E4FF98B128461038C0460546DFF817
:1009E0002820A9688908091D00F04AF838B124B107
:1009F00028682060696889086160012032BDAFF312
:100A00000080002032BD000004000020E40100202E
:100A100000B501000148ABBE00BD00001127000079
:100A200030B403F0030303E0032B88BF0023401C12
:100A3000884206D01C46631C0578145DA542F3D09D
:100A400000E002E0002030BC7047012030BC70475D
:100A500070B4821C002303E0042B28BF0023521C27
:100A6000041DA24209D01C460E19631C1578B478E7
:100A7000A542F1D0002070BC7047012070BC7047C7
:100A8000F8B505460E46144600F045F8297B6A7B0A
:100A900042EA012290423AD1214605F10C00FFF7CB
:100AA000D7FFA0B3AF682A79A919BF08E81902F0E7
:100AB0000302032A1DD1A7F11003042B0AD2281D1B
:100AC0002246384401B08008BDE8F040C3F1040379
:100AD0008000A5E7002203E0042A28BF0022401C72
:100AE000884216D013465A1C0578E35C9D42F3D029
:100AF0000DE0002203E0042A28BF0022401C8842A7
:100B000007D013465A1C0578E35C9D42F3D00020C1
:100B1000F2BD0120F2BD024670B44FF6FF700C2109
:100B20000C4B12F8014B85B2260986EA253633F8BC
:100B3000165004F00F04491E85EA0015A8B284EA95
:100B4000203433F8140080EA0510EAD180B270BC7A
:100B500070470000580C0008FEE7FEE7FEE7FEE7DE
:100B6000FEE770477047704770470C490C480A8889
:100B70000C4BC2616FF0010C19880B4A016213889B
:100B80000A4983610A780A4BD24312021A60012192
:100B9000084A1170C0F800C070470000FE01002034
:100BA000102C01400002002002020020040200205C
:100BB0000C080140FC010020704730B450F8041BC1
:100BC00079B10268436802440830DC0744BFA9F1E8
:100BD0000104E31852F8045B43F8045B091FF9D1E0
:100BE000ECE730BC7047000010B507497944183174
:100BF000064C7C44163404E00A68081D11448847FA
:100C00000146A142F8D110BD2C0000004C000000AC
:100C10000024F40000000000000000002B328417C4
:100C20009783BC4F3F2244FCE529EF310000004090
:100C30000A000000F3F8FFFFE40100002400002098
:100C40000000000077FFFFFF24000000C4FFFFFF4B
:100C5000000000200000000000002110422063304E
:100C60008440A550C660E770088129914AA16BB104
:100C70008CC1ADD1CEE1EFF10120C046002801D0FA
:100C8000FFF7B2FFAFF300800020AFF30080FFF763
:100C900047FA00F000F800F001B8000007463846B7
:100CA00000F002F8FBE7000080B5AFF30080024AD5
:100CB00011001820ABBEFBE7260002000148804768
:100CC00001480047DD0C0008CD0C0008AFF30080A0
:100CD000AFF30080FFF7D0FFFFF7FEBF70470000C3
:0400000508000CCD16
:00000001FF
