:020000040800F2
:10000000080A002029130008AB110008AD110008F0
:10001000AF110008B1110008B31100080000000082
:10002000000000000000000000000000B511000802
:10003000B711000800000000B9110008BB1100084A
:100040004513000845130008451300084513000830
:100050004513000845130008451300084513000820
:100060004513000845130008451300084513000810
:100070004513000845130008451300084513000800
:1000800045130008451300084513000845130008F0
:1000900045130008451300084513000845130008E0
:1000A00045130008BD11000845130008451300085A
:1000B00025120008451300084513000845130008E1
:1000C00045130008451300084513000845130008B0
:1000D00045130008451300084513000845130008A0
:1000E00045130008451300084513000810F00700E9
:1000F000DFF84C2513684FF6FF010B40DFF844157D
:1001000051EA00210B4313607047DFF834050068A3
:10011000C0F302207047010049B2002909D401222E
:1001200010F01F018A40DFF8201540B2400941F865
:1001300020207047020052B2002A05D40901DFF8DE
:100140000C2540B2115408E00901DFF8042540B243
:1001500010F00F00104400F8041C704710B410F0A9
:100160000700D0F10703052B01D3042301E0D0F1F0
:100170000703041D072C01D2002000E0C01E01244B
:1001800014FA03F35B1E1940814014FA00F0401E7C
:100190001040084310BC7047DFF8B804016851F400
:1001A000803101607047DFF8AC040068400C10F04B
:1001B00001007047DFF8A0140A689208920010430B
:1001C00008607047DFF89004006810F00C0070477A
:1001D000DFF884140A6832F0F002104308607047B8
:1001E000DFF874140A6832F4E06210430860704764
:1001F000DFF864140A6832F46052104308607047F4
:10020000DFF85004016851F0807101607047DFF839
:1002100044040068400E10F001007047DFF83824F5
:10022000136833F47C1310F4403018430843106013
:10023000704781B0DFF824140A6802430A60096835
:1002400008400090009801B0704781B0DFF81014AA
:100250000A6802430A60096808400090009801B0EB
:100260007047DFF800140A68D208D2001043086013
:100270007047DFF8F003006810F00700704710B512
:100280000400200000F1040388422CBF9A4200F0D1
:100290002DFA006850F00100206010BD10B5040078
:1002A000200000F1040388422CBF9A4200F01EFA9D
:1002B000006850F08000206010BD30B504000D00D3
:1002C00011001A0014F1080000F1040388422CBF49
:1002D0009A4200F00BFA0168E34801400D43A56023
:1002E00030BD30B504000D0011001A00201D00F1D2
:1002F000040388422CBF9A4200F0F8F9006830F0FD
:1003000070000543656030BD10B5040014F10800AD
:1003100000F1040388422CBF9A4200F0E7F900681C
:1003200030F08000A06010BD10B5040014F10C0086
:1003300000F1040388422CBF9A4200F0D7F900680C
:1003400050F00100E06010BD10B50C0011001A0063
:10035000143000F1040388422CBF9A4200F0C6F921
:10036000C4F30F21016010BDC048016831F0E061A5
:100370000160016851F000710160704718B5ADF57A
:100380000D7D0120FFF761FF5FF08050FFF751FF07
:100390000320FFF7ABFEFFF7E7FF00F03AF849A8AC
:1003A000B3494FF4887200F0ABF949AA02A902A838
:1003B00000F0E9F900240CE08DA8019049A8009014
:1003C00049AB02AA49A800EBC40102A800F003FA55
:1003D000641C0A2CF0DB00F0E8F800F069F800F08B
:1003E000A5F800F049F8A348A34A0100FFF747FF2A
:1003F000A24C20780028FBD049AA02A902A800F04C
:100400003FFA49AA02A902A800F024FB00202070AC
:10041000EEE710B50220FFF724FFFFF72AFF0228BE
:10042000FBD1FFF7B9FEFFF7BEFE0128FBD15FF459
:10043000E0115FF48030FFF7F1FEFFF7E1FEFFF718
:10044000E6FE0128FBD10020FFF7C2FE4FF48060DA
:10045000FFF7C6FE0020FFF7CBFE0220FFF7AAFE43
:10046000FFF7B0FE0828FBD1854C200000F01CFBF4
:10047000200000F01FFB10BD80B5FFF746FE0022F4
:100480000021FFF76BFE01001920FFF753FE192032
:10049000FFF741FEFFF739FE00220021FFF75EFE65
:1004A00001001C20FFF746FE1C20FFF734FE01BDB3
:1004B00030B587B002A8142100F008FB4FF40060AB
:1004C000FFF7C3FE4720ADF808000020039001208D
:1004D00004900020059000200690664C664D07A809
:1004E000019002A800902B00220002A9200000F039
:1004F0002BFB2A0021002000FFF7D0FE2B0022005A
:1005000000212000FFF7D9FE2B002200002120004F
:10051000FFF7E7FE2A0021002000FFF7F5FE2A0082
:1005200021002000FFF700FF07B030BD18B587B0ED
:1005300002A8142100F0CAFA0120FFF77AFE002079
:10054000ADF808000020039064200490002005907E
:100550004C4C07A8019002A8009023005FF0804255
:1005600002A95FF0804000F0EFFA22005FF08041C6
:100570005FF08040FFF792FE23005FF08042002191
:100580005FF08040FFF799FE23005FF0804200217A
:100590005FF08040FFF7A5FE22005FF080415FF032
:1005A0008040FFF7B1FE08B010BD2DE9F04387B0E1
:1005B00002A8142100F08AFA1020FFF746FE20203E
:1005C000FFF743FE0420FFF740FEDFF8BC902F4CFE
:1005D0002F4D2B00220049462000FFF7B5FE2D4E7F
:1005E0002D4FDFF8B88043463A0031003800FFF75E
:1005F000ABFECDF80890012003900220049000206B
:10060000059007A8019002A800902B00220002A9E3
:10061000200000F0B5FB0296012003900220049018
:100620000020059007A8019002A8009043463A00D8
:1006300002A9380000F0A4FB07B0BDE8F083000079
:100640000CED00E00000FA0500E100E000E400E04D
:1006500018ED00E000100240041002401C1002409F
:100660001810024000200240F8BFFFFF04000140C4
:1006700080100008002C0140542C0140030200208F
:1006800000A24A0454000040200020040010014051
:100690001C10014001000104000801401C08014039
:1006A000F0B58BB004460D4616461F4669462846EF
:1006B00000F0E5FB30B100990A48099101990290D8
:1006C0000A9101E008490291119A10990494039249
:1006D000059706950796089102A800F0F7FB0BB066
:1006E000F0BD00002A000009050000071FB582B018
:1006F000CDF804E0CDF800E0FFF7D2FF02B01FBD57
:10070000103A07D330B4B1E83810103AA0E83810E6
:10071000F9D230BC530724BFB1E80810A0E8081094
:1007200044BF51F8043B40F8043BD20724BF31F8E2
:10073000022B20F8022B44BF0B7803707047121F66
:1007400017D35B0009D151F8043B20F8023B1B0C86
:10075000121F20F8023BF6D20BE051F8043B00F8E0
:10076000013B1B0A20F8023B1B0C121F00F8013B47
:10077000F3D238BF121D521E24BF11F8013B00F8FE
:10078000013BF8D870473EB5040014F58B75B5F100
:100790000E0000F1120388422CBF9A42FFF7A6FF19
:1007A000002028700020C4F808010020C4F80C01C3
:1007B0000020A4F818010020A4F810010020A4F8DB
:1007C00012010020A4F814010094019102926846DD
:1007D00007C803B030BD2DE9F04F05000C0016002E
:1007E0001F00DDF82480DDF8289015F584703A00AC
:1007F000310000F1040388422CBF9A42FFF776FFD4
:10080000D0F800A01AF10100C5F808015FF0080B4C
:100810004A464146200000EB0B0388422CBF9A4217
:10082000FFF764FF05EBCA003A00310000EB0B0351
:1008300088422CBF9A42FFF759FFD4E90023C0E950
:100840000023BDE8F08F30B4002513E050F8042BEE
:10085000D30744BFA9F101039A18091F042942F8DC
:10086000045BFAD213468C0744BF15809B1CC90752
:1008700048BF1D7050F8041B0029E7D130BC7047F9
:10088000F8B504000D00160014F58B77320029002E
:10089000B7F10A0000F10B0388422CBF9A42FFF720
:1008A00025FF387800281FD0D4F80C0104EBC000D5
:1008B0003200290000F1040388422CBF9A42FFF75E
:1008C00015FF01684FF6FF70B1FBF0F24FF6FF70B5
:1008D00000FB1211A4F81011002084F81601320058
:1008E0002900200000F0FAFAD4F80C0104EBC00053
:1008F00004273200290000EB070388422CBF9A42EC
:10090000FFF7F4FE0068022834D2D4F80C0104EB9F
:10091000C0003200290000EB070388422CBF9A4236
:10092000FFF7E4FE0068002804D13200290020000F
:1009300000F0D4FA0120A4F810010020A4F812015C
:100940002320A4F81401D4F80C0104EBC000001D0E
:100950003200290000F1010388422CBF9A42FFF7C0
:10096000C5FE00783A490870D4F80C01401CC4F860
:100970000C016BE0D4F80C0104EBC000320029003C
:1009800000EB070388422CBF9A42FFF7AFFE0068D6
:10099000801E4FF6FD7188422CD2D4F80C0104EB76
:1009A000C0003200290000EB070388422CBF9A42A6
:1009B000FFF79CFE0068A4F810010020A4F81201C3
:1009C0004720A4F81401D4F80C0104EBC000001D6A
:1009D0003200290000F1010388422CBF9A42FFF740
:1009E00085FE00781A49087032002900200000F0C6
:1009F00075FA2BE04FF6FF70A4F81001D4F80C0143
:100A000004EBC0003200290000EB070388422CBF32
:100A10009A42FFF76BFE00684FF6FF71B0FBF1F0F2
:100A2000A4F81201D4F80C0104EBC000001D320040
:100A3000290000F1010388422CBF9A42FFF756FEBD
:100A4000007803490870012084F81601F1BD00BF49
:100A50000202002010B5040014F5887000F10603AE
:100A600088422CBF9A42FFF741FE00880549088062
:100A7000B4F8120104490880B4F81401034908804D
:100A800010BD00BFFC010020FE010020000200207C
:100A9000B0FBF1F0401E09490860002008490860D9
:100AA000052008490860704780B54FF47A71FFF758
:100AB000EFFF01BD044908607047000014E000E04A
:100AC00018E000E010E000E000000020002200F04C
:100AD00021BA000010B50C0011001A00283000F1F6
:100AE000040388422CBF9A42FFF700FE046010BD49
:100AF00010B50C0011001A002C3000F104038842DC
:100B00002CBF9A42FFF7F2FD046010BD10B50C0037
:100B100011001A00303000F1040388422CBF9A42C1
:100B2000FFF7E4FD046010BD10B5040014F11400DB
:100B300000F1040388422CBF9A42FFF7D7FD0068FA
:100B400050F00100606110BD2DE9F84F04008946A6
:100B500015001E000B9F20005FF0040832002900E2
:100B600000EB080388422CBF9A42FFF7BFFDD0F884
:100B700000B0DFF8F8A054450AD0B4F1804F07D098
:100B8000DFF8EC00844203D0DFF8E800844213D1A0
:100B900019F1040000903A000A990098001F00F132
:100BA0000C0388422CBF9A42FFF7A0FD3BF0700B6C
:100BB0000098006850EA0B0B54450AD0B4F1804FFE
:100BC00007D0DFF8AC00844203D0DFF8A8008442ED
:100BD00013D119F10C0000903A000A9900980C38D2
:100BE00000F1100388422CBF9A42FFF77FFD3BF4CF
:100BF000407B0098006850EA0B0BC4F800B019F174
:100C0000080B3A000A99BBF1080000F10C03884276
:100C10002CBF9A42FFF76AFD33002A00DBF8001070
:100C20002000FFF765FF33002A00B9F8001020000C
:100C3000FFF750FF544510D119F110003A000A99FE
:100C400000EB080388422CBF9A42FFF74FFD3300A8
:100C50002A0001685046FFF759FF320029002000A2
:100C6000FFF762FF0020BDE8F28F0000002C01407A
:100C70000004004000080040F0B505001400059A8B
:100C800015EB116591FAA1F0B0FA80F691FAA1F096
:100C9000B0FA80F72800190000F1040388422CBF45
:100CA0009A42FFF723FD01680F22B0008240914372
:100CB000B80084400C432C60F0BDF0B50500140072
:100CC000059A15EB116591FAA1F0B0FA80F691FA48
:100CD000A1F0B0FA80F72800190000F1040388425F
:100CE0002CBF9A42FFF702FD01680322B000824048
:100CF0009143B80084400C432C60F0BD2DE9F041D5
:100D000005001400069A15EB116591FAA1F0B0FAEE
:100D100080F691FAA1F0B0FA80F728005FF004089D
:100D2000190000EB080388422CBF9A42FFF7DEFC53
:100D30000168B00018FA00F831EA0808B8008440E9
:100D400054EA08042C60BDE8F08170B504000E0080
:100D50001500049A14F10C00190000F104038842F4
:100D60002CBF9A42FFF7C2FC016831EA1621360A0D
:100D700096FAA6F0B0FA80F085400D43E56070BDAC
:100D80002DE9F84F04000D0016001F0028000B9AF3
:100D90000A9900F1040388422CBF9A42FFF7A6FC8F
:100DA000D0F800805FEA08285FEA184898FAA8F0AF
:100DB000B0FA80F947E05FF001104946B1F1080A46
:100DC00010FA0AFA5AF0806A0BE0404630FA09F04D
:100DD000C00736D5B9F1080FEDD240F2011A1AFA60
:100DE00009FA15F1100B0B9A0A99BBF10C0000F1EE
:100DF000100388422CBF9A42FFF778FC009733001B
:100E0000DBF8002051462000FFF79FFF00973300DA
:100E10006A6851462000FFF72FFF6868012802D05A
:100E2000686809280DD100973300AA685146200050
:100E3000FFF743FF00973300EA6851462000FFF7B1
:100E40005DFF19F10109404630FA09F00028BCD1D4
:100E50000020BDE8F28F000010F007010DD1DFF88F
:100E6000681000E0896841B10A689042FAD34B6883
:100E70001A449042F6D2012070470020704738B5DE
:100E800005460C46AFF30080BDB12846FFF7E4FFEE
:100E900098B128461038C0460546DFF82820A968D2
:100EA0008908091D00F080F838B124B12868206055
:100EB000696889086160012032BDAFF300800020BD
:100EC00032BD000004000020E401002000B5010054
:100ED0000148ABBE00BD00001127000030B5040082
:100EE00014F58675281F00F1080388422CBF9A422A
:100EF000FFF7FCFB2868D4F80811491E884205D288
:100F0000D4F80C01401CC4F80C0102E00020C4F825
:100F10000C0130BD00B500BF130096469446103951
:100F200028BFA0E80C50FAD85FEA417C28BF0CC06B
:100F300048BF40F8042BC90728BF20F8022B48BF40
:100F400000F8012B00BD000030B403F0030303E000
:100F5000032B88BF0023401C884206D01C46631C1C
:100F60000578145DA542F3D000E002E0002030BC1B
:100F70007047012030BC704770B4821C002303E02E
:100F8000042B28BF0023521C041DA24209D01C467A
:100F90000E19631C1578B478A542F1D0002070BCFE
:100FA0007047012070BC7047F8B505460E461446E0
:100FB00000F045F8297B6A7B42EA012290423AD14F
:100FC000214605F10C00FFF7D7FFA0B3AF682A79DF
:100FD000A919BF08E81902F00302032A1DD1A7F1DD
:100FE0001003042B0AD2281D2246384401B0800881
:100FF000BDE8F040C3F104038000A5E7002203E050
:10100000042A28BF0022401C884216D013465A1CCE
:101010000578E35C9D42F3D00DE0002203E0042A52
:1010200028BF0022401C884207D013465A1C05786E
:10103000E35C9D42F3D00020F2BD0120F2BD0246E8
:1010400070B44FF6FF700C210C4B12F8014B85B2B7
:10105000260986EA253633F8165004F00F04491E97
:1010600085EA0015A8B284EA203433F8140080EA37
:101070000510EAD180B270BC70470000C4120008AD
:1010800005000000000000000A0000000100000050
:1010900005000000000000000F000000010000003B
:1010A0003D000000000000003E2A0000010000009A
:1010B000CE030000000000006A2B000001000000C9
:1010C0000F00000000000000042D000001000000DF
:1010D000C1020000000000005B00000001000000F1
:1010E000822E0000000000008C2E00000100000095
:1010F0004B2F0000000000000A000000010000006B
:101100001430000000000000140000000100000086
:10111000DD3000000000000033310000010000005D
:101120000A000000000000001400000001000000A0
:101130000B00000000000000620000000100000041
:101140003833000000000000200000000100000013
:10115000390100000000000009000000010000004B
:101160000202000000000000040000000100000076
:101170009335000000000000553900000100000018
:101180003C00000000000000B0B3000001000000BF
:1011900000B5103000F1040388422CBF9A42FFF7DB
:1011A000A5FA7FF00101016000BDFEE7FEE7FEE762
:1011B000FEE7FEE7704770477047704780B50E48FE
:1011C00000880E4908600E4800880E4908600E48E5
:1011D00000880E4908600E4801680E4A127891EAAC
:1011E0000221016001200C4908700C490C4A0800DA
:1011F000FFF7CEFF01BD0000FC0100202C2C0140B8
:10120000FE010020302C014000020020282C01406B
:101210000C0801400202002003020020002C0140C3
:10122000542C0140704730B450F8041B79B1026867
:10123000436802440830DC0744BFA9F10104E31805
:1012400052F8045B43F8045B091FF9D1ECE730BCAA
:101250007047000010B5074979441831064C7C44AA
:10126000163404E00A68081D114488470146A1426B
:10127000F8D110BD2C0000004C0000000024F40048
:1012800000000000000000002B3284179783BC4F41
:101290003F2244FCE529EF31000000400A00000035
:1012A000A7F5FFFFE001000024000020000000007F
:1012B00077FFFFFF24000000C4FFFFFF00000020B5
:1012C0000000000000002110422063308440A5503F
:1012D000C660E770088129914AA16BB18CC1ADD17C
:1012E000CEE1EFF10120C046002801D0FFF7B2FFA8
:1012F000AFF300800020AFF30080FFF73FF800F06D
:1013000000F800F001B800000746384600F002F887
:10131000FBE7000080B5AFF30080024A11001820FF
:10132000ABBEFBE7260002000148804701480047AA
:101330004913000839130008AFF30080AFF30080B1
:0A134000FFF7D0FFFFF7FEBF704774
:0400000508001339A3
:00000001FF
