:020000040800F2
:10000000080A0020091300086F1100087111000888
:100010007311000875110008771100080000000036
:10002000000000000000000000000000791100083E
:100030007B110008000000007D1100087F110008FE
:1000400025130008251300082513000825130008B0
:1000500025130008251300082513000825130008A0
:100060002513000825130008251300082513000890
:100070002513000825130008251300082513000880
:100080002513000825130008251300082513000870
:100090002513000825130008251300082513000860
:1000A00025130008811100082513000825130008F6
:1000B000E511000825130008251300082513000882
:1000C0002513000825130008251300082513000830
:1000D0002513000825130008251300082513000820
:1000E00025130008251300082513000810B410F08C
:1000F0000703DFF8A04521680A004FF6FF010A4018
:10010000DFF8941551EA03210A43226010BC7047BE
:10011000DFF880050068C0F302207047010049B293
:1001200000290AD4012210F01F018A40DFF86C1563
:1001300003005BB25B0941F82320704710B4020052
:1001400052B2002A06D40A01DFF85435040064B222
:100150001A5509E00A01DFF84C35040064B214F0C6
:100160000F04234403F8042C10BC704770B4030040
:1001700013F00705D5F10700052801D3042001E09D
:10018000D5F107002C1D072C01D2002400E0EC1E45
:10019000012616FA00F0401E0140A14016FA04F4B0
:1001A000641E22401143080070BC7047DFF8F80459
:1001B000016851F4803101607047DFF8EC04006899
:1001C000400C10F001007047DFF8E0140A68920854
:1001D000920002430A607047DFF8D004006810F014
:1001E0000C007047DFF8C4140A6832F0F0020243D2
:1001F0000A607047DFF8B4140A6832F4E062024320
:100200000A607047DFF8A4140A6832F460520243AF
:100210000A607047DFF89004016851F08071016056
:100220007047DFF884040068400E10F0010070474A
:1002300010B4DFF878341C6834F47C1410F44032C5
:1002400014430C431C6010BC704781B0DFF860148D
:100250000A6802430A60096801400091009901B0F0
:10026000704781B0DFF84C140A6802430A600968DD
:1002700001400091009901B07047DFF83C140A6812
:10028000D208D20002430A607047DFF82C040068ED
:1002900010F00700704710B50400200000F10403BF
:1002A00088422CBF9A4200F04FFA006850F00100DB
:1002B000206010BD10B50400200000F10403884246
:1002C0002CBF9A4200F040FA006850F08000206095
:1002D00010BD30B504000D0011001A0014F1080023
:1002E00000F1040388422CBF9A4200F02DFA016805
:1002F000DFF8C80301402943A16030BD30B50400D8
:100300000D0011001A00201D00F1040388422CBFCB
:100310009A4200F019FA006830F0700028436060DB
:1003200030BD10B5040014F1080000F10403884248
:100330002CBF9A4200F008FA006830F08000A060FC
:1003400010BD10B5040014F10C0000F10403884244
:100350002CBF9A4200F0F8F9006850F00100E0600C
:1003600010BD30B504000D0011001A0014F1140086
:1003700000F1040388422CBF9A4200F0E5F9C5F36E
:100380000F21016030BDCE48016831F0E0610160AD
:10039000016851F000710160704718B5D1B00120BB
:1003A000FFF75FFF5FF08050FFF74FFF0320FFF77D
:1003B0009DFEFFF7E8FF00F03FF80120C1490880EB
:1003C0004720C149088002A8C049202200F0C6F990
:1003D00051AA0AA90AA800F004FA0024042C0DDA94
:1003E0000AA8019002A8009051AB0AAA02A800EB4B
:1003F000C4010AA800F01DFA641CEFE700F000F940
:1004000000F081F800F0BDF800F061F8B048B14AA2
:100410000100FFF740FFB04C20780028FBD051AA24
:100420000AA90AA800F05CFA51AA0AA90AA800F0D1
:1004300057FB00202070EEE710B50220FFF71DFFEC
:10044000FFF723FF022801D0012000E00020C0B206
:100450000028F5D1FFF7AAFEFFF7AFFE012801D073
:10046000012000E00020C0B20028F5D15FF4E011C7
:100470005FF48030FFF7DCFEFFF7CCFEFFF7D1FE24
:10048000012801D0012000E00020C0B20028F5D1F1
:100490000020FFF7A7FE4FF48060FFF7ABFE0020BF
:1004A000FFF7B0FE0220FFF78FFEFFF795FE08284A
:1004B00001D0012000E00020C0B20028F5D1874C17
:1004C000200000F03AFB200000F03FFB10BD80B59B
:1004D000FFF71EFE00220021FFF748FE0100192051
:1004E000FFF72CFE1920FFF719FEFFF711FE00227F
:1004F0000021FFF73BFE01001C20FFF71FFE1C2020
:10050000FFF70CFE01BD30B587B002A8142100F042
:1005100029FB4FF40060FFF7A4FE4720ADF8080068
:1005200000200390012004900020059000200690F8
:10053000674C684D07A8019002A800902B0022008C
:1005400002A9200000F052FB2A0021002000FFF742
:10055000B1FE2B00220000212000FFF7BAFE2B0085
:10056000220000212000FFF7C9FE2A002100200000
:10057000FFF7D7FE2A0021002000FFF7E2FE07B0B8
:1005800030BD18B587B002A8142100F0EBFA0120A5
:10059000FFF75BFE0020ADF8080000200390642008
:1005A0000490002005904E4C07A8019002A80090EE
:1005B00023005FF0804202A95FF0804000F016FB4C
:1005C00022005FF080415FF08040FFF773FE230060
:1005D0005FF0804200215FF08040FFF77AFE230049
:1005E0005FF0804200215FF08040FFF787FE22002D
:1005F0005FF080415FF08040FFF793FE08B010BDD0
:100600002DE9F04387B002A8142100F0ABFA1020C6
:10061000FFF727FE2020FFF724FE0420FFF721FE2E
:10062000DFF8C090304C314D2B00220049462000AD
:10063000FFF797FE2E4E2F4FDFF8BC8043463A005F
:1006400031003800FFF78DFECDF8089001200390AF
:10065000022004900020059007A8019002A80090B5
:100660002B00220002A9200000F0F1FB02960120DD
:100670000390022004900020059007A8019002A892
:10068000009043463A0002A9380000F0E0FB07B0B2
:10069000BDE8F0830CED00E00000FA0500E100E0A9
:1006A00000E400E018ED00E00010024004100240F9
:1006B0001C1002401810024000200240F8BFFFFF4B
:1006C00004000140FC010020000200208412000808
:1006D000002C0140542C01400302002000A24A04D7
:1006E0005400004020002004001001401C10014074
:1006F00001000104000801401C080140F0B58BB066
:1007000004460D4616461F466946284600F01FFC63
:1007100030B100990A480991019902900A9101E0CB
:1007200008490291119A109904940392059706952D
:100730000796089102A800F031FC0BB0F0BD000054
:100740002A000009050000071FB582B0CDF804E0BB
:10075000CDF800E0FFF7D2FF02B01FBD103A07D37B
:1007600030B4B1E83810103AA0E83810F9D230BCF3
:10077000530724BFB1E80810A0E8081044BF51F89F
:10078000043B40F8043BD20724BF31F8022B20F889
:10079000022B44BF0B7803707047121F17D35B0006
:1007A00009D151F8043B20F8023B1B0C121F20F822
:1007B000023BF6D20BE051F8043B00F8013B1B0A68
:1007C00020F8023B1B0C121F00F8013BF3D238BF8C
:1007D000121D521E24BF11F8013B00F8013BF8D84E
:1007E00070473EB5040014F58B75B5F10E0000F1AD
:1007F000120388422CBF9A42FFF7A6FF0020287000
:100800000020C4F808010020C4F80C010020A4F85E
:1008100018010120A4F810010020A4F812014720BB
:10082000A4F81401009401910292684607C803B02D
:1008300030BD2DE9F84F04000D0016001F00DDF853
:100840002880DDF82C9014F584703A00310000F116
:10085000040388422CBF9A42FFF776FFD0F800B01D
:100860001BF10100C4F8080100955FF0080A4A4630
:100870004146009800EB0A0388422CBF9A42FFF7DA
:1008800063FF04EBCB003A00310000EB0A0388421F
:100890002CBF9A42FFF758FF0099D1E90023C0E925
:1008A0000023BDE8F18F30B4002513E050F8042B8D
:1008B000D30744BFA9F101039A18091F042942F87C
:1008C000045BFAD213468C0744BF15809B1CC907F2
:1008D00048BF1D7050F8041B0029E7D130BC704799
:1008E0002DE9F84306000F00904616F58B7442463A
:1008F0003900B4F10A0000F10B0388422CBF9A4280
:10090000FFF722FF2078002824D0D6F80C0106EB50
:10091000C0004246390000F1040388422CBF9A42CD
:10092000FFF712FFD0F800904FF6FF70B9FBF0F41C
:100930004FF6FF7000FB14940025A6F8104100202C
:10094000A6F81201002086F8160142463900300050
:1009500000F02CFBD6F80C0106EBC0000424424644
:10096000390000EB040388422CBF9A42FFF7ECFEEB
:100970000068022834D2D6F80C0106EBC0004246CB
:10098000390000EB040388422CBF9A42FFF7DCFEDB
:100990000068002804D142463900300000F006FB10
:1009A0000120A6F810010020A6F812012320A6F8C5
:1009B0001401D6F80C0106EBC000001D42463900B8
:1009C00000F1010388422CBF9A42FFF7BDFE007878
:1009D00042490870D6F80C01401CC6F80C017BE0B7
:1009E000D6F80C0106EBC0004246390000EB0403C8
:1009F00088422CBF9A42FFF7A7FE006802283FD327
:100A0000D6F80C0106EBC0004246390000EB0403A7
:100A100088422CBF9A42FFF797FE4FF6FF75006899
:100A2000A8422DD2D6F80C0106EBC0004246390090
:100A300000EB040388422CBF9A42FFF785FE006852
:100A40002D18A6F810510020A6F812014720A6F88C
:100A50001401D6F80C0106EBC000001D4246390017
:100A600000F1010388422CBF9A42FFF76DFE007827
:100A70001A49087042463900300000F097FA2BE01E
:100A80004FF6FF70A6F81001D6F80C0106EBC00077
:100A90004246390000EB040388422CBF9A42FFF71C
:100AA00053FE00684FF6FF71B0FBF1F0A6F812019B
:100AB000012086F81601D6F80C0106EBC000001DD7
:100AC0004246390000F1010388422CBF9A42FFF7E9
:100AD0003BFE007801490870BDE8F1830202002066
:100AE00010B5040014F5887000F1060388422CBF8D
:100AF0009A42FFF729FE008805490880B4F81201E0
:100B0000401E04490880B4F814010349088010BD50
:100B1000FC010020FE01002000020020B0FBF1F2E9
:100B2000521EDFF830301A600022DFF82C301A60D5
:100B30000522DFF828301A60704710B504004FF422
:100B40007A712000FFF7EAFF10BDDFF8141008608B
:100B50007047000014E000E018E000E010E000E062
:100B600000000020002200F03DBA000030B5040073
:100B70000D0011001A0014F1280000F1040388424E
:100B80002CBF9A42FFF7E0FD056030BD30B5040090
:100B90000D0011001A0014F12C0000F1040388422A
:100BA0002CBF9A42FFF7D0FD056030BD30B5040080
:100BB0000D0011001A0014F1300000F10403884206
:100BC0002CBF9A42FFF7C0FD056030BD10B5040090
:100BD00014F1140000F1040388422CBF9A42FFF77D
:100BE000B3FD006850F00100606110BD2DE9F34FC6
:100BF00081B0040015001E000C9FDDF83480200039
:100C00005FF004093200290000EB090388422CBF81
:100C10009A42FFF799FD00688346DFF8F8A0544533
:100C20000AD0B4F1804F07D0DFF8EC00844203D043
:100C3000DFF8E800844213D10298001D009042467C
:100C400039000098001F00F10C0388422CBF9A4223
:100C5000FFF77AFD3BF0700B0098006850EA0B0B31
:100C600054450AD0B4F1804F07D0DFF8AC0084427D
:100C700003D0DFF8A800844213D102980C30009012
:100C80004246390000980C3800F1100388422CBF0E
:100C90009A42FFF759FD3BF4407B0098006850EA08
:100CA0000B0BC4F800B0029808300090424639009F
:100CB0000098083800F10C0388422CBF9A42FFF7D5
:100CC00043FD33002A00009801682000FFF75EFF13
:100CD00033002A00029801882000FFF747FF54459F
:100CE00010D1029810304246390000EB09038842C7
:100CF0002CBF9A42FFF728FD33002A0001685046B6
:100D0000FFF754FF320029002000FFF75FFF0020AB
:100D1000BDE8FE8F002C01400004004000080040A8
:100D20002DE9F04304000D001600079A14EB156737
:100D300095FAA5F0B0FA80F995FAA5F0B0FA80F826
:100D40003800190000F1040388422CBF9A42FFF7D3
:100D5000FBFC01680F225FEA8900824091435FEA51
:100D6000880016FA00F001433960BDE8F0832DE9F0
:100D7000F04304000D001600079A14EB156795FA6E
:100D8000A5F0B0FA80F995FAA5F0B0FA80F838002D
:100D9000190000F1040388422CBF9A42FFF7D4FCEB
:100DA000016803225FEA8900824091435FEA88007C
:100DB00016FA00F001433960BDE8F0832DE9F047F1
:100DC00004000D001600089A14EB156795FAA5F0BB
:100DD000B0FA80FA95FAA5F0B0FA80F938005FF021
:100DE0000408190000EB080388422CBF9A42FFF761
:100DF000ABFC01685FEA8A0018FA00F831EA0808DB
:100E00005FEA890016FA00F050EA0808C7F8008087
:100E1000BDE8F08770B504000D001600049A14F1C7
:100E20000C00190000F1040388422CBF9A42FFF71E
:100E30008BFC006830EA15202900090A91FAA1F11B
:100E4000B1FA81F116FA01F10843E06070BD2DE9B5
:100E5000FE4F05000E0017009846DDF83490300074
:100E60004A460C9900F1040388422CBF9A42FFF7CE
:100E70006BFC00680002000C0190019890FAA0F051
:100E8000B0FA80F004000198E040002848D00198B2
:100E9000E040C00742D5082C04D240F20110A04027
:100EA000824607E05FF0011120000838814051F0D0
:100EB00080618A4616F1100B4A460C99BBF10C0072
:100EC00000F1100388422CBF9A42FFF73DFCCDF899
:100ED00000803B00DBF8002051462800FFF79AFF16
:100EE000CDF800803B00726851462800FFF718FFDC
:100EF0007068012802D0706809280FD1CDF80080F1
:100F00003B00B26851462800FFF731FFCDF8008062
:100F10003B00F26851462800FFF750FF641CB2E71F
:100F20000020BDE8FE8F000010F007010DD1DFF8B2
:100F3000681000E0896841B10A689042FAD34B68B2
:100F40001A449042F6D2012070470020704738B50D
:100F500005460C46AFF30080BDB12846FFF7E4FF1D
:100F600098B128461038C0460546DFF82820A96801
:100F70008908091D00F080F838B124B12868206084
:100F8000696889086160012032BDAFF300800020EC
:100F900032BD000004000020E401002000B5010083
:100FA0000148ABBE00BD00001127000030B50400B1
:100FB00014F58675281F00F1080388422CBF9A4259
:100FC000FFF7C2FB2868D4F80811491E884205D2F1
:100FD000D4F80C01401CC4F80C0102E00020C4F855
:100FE0000C0130BD00B500BF130096469446103981
:100FF00028BFA0E80C50FAD85FEA417C28BF0CC09B
:1010000048BF40F8042BC90728BF20F8022B48BF6F
:1010100000F8012B00BD000030B403F0030303E02F
:10102000032B88BF0023401C884206D01C46631C4B
:101030000578145DA542F3D000E002E0002030BC4A
:101040007047012030BC704770B4821C002303E05D
:10105000042B28BF0023521C041DA24209D01C46A9
:101060000E19631C1578B478A542F1D0002070BC2D
:101070007047012070BC7047F8B505460E4614460F
:1010800000F045F8297B6A7B42EA012290423AD17E
:10109000214605F10C00FFF7D7FFA0B3AF682A790E
:1010A000A919BF08E81902F00302032A1DD1A7F10C
:1010B0001003042B0AD2281D2246384401B08008B0
:1010C000BDE8F040C3F104038000A5E7002203E07F
:1010D000042A28BF0022401C884216D013465A1CFE
:1010E0000578E35C9D42F3D00DE0002203E0042A82
:1010F00028BF0022401C884207D013465A1C05789E
:10110000E35C9D42F3D00020F2BD0120F2BD024617
:1011100070B44FF6FF700C210C4B12F8014B85B2E6
:10112000260986EA253633F8165004F00F04491EC6
:1011300085EA0015A8B284EA203433F8140080EA66
:101140000510EAD180B270BC70470000A4120008FC
:1011500010B5040014F1100000F1040388422CBF04
:101160009A42FFF7F1FA7FF00101016010BDFEE73E
:10117000FEE7FEE7FEE7FEE77047704770477047FF
:1011800080B50D4800880D4908600D4800880D495C
:1011900008600D4800880D4908600D480078C0437C
:1011A00000020C49086001200B4908700B490C4AE9
:1011B0000800FFF7CDFF01BDFC0100202C2C0140F1
:1011C000FE010020302C014000020020282C0140AC
:1011D000020200200C08014003020020002C014004
:1011E000542C0140704730B450F8041B79B10268A8
:1011F000436802440830DC0744BFA9F10104E31846
:1012000052F8045B43F8045B091FF9D1ECE730BCEA
:101210007047000010B5074979441831064C7C44EA
:10122000163404E00A68081D114488470146A142AB
:10123000F8D110BD2C0000004C0000000024F40088
:1012400000000000000000002B3284179783BC4F81
:101250003F2244FCE529EF31000000400A00000075
:1012600047F6FFFFE001000024000020000000001E
:1012700077FFFFFF24000000C4FFFFFF00000020F5
:101280000000000070110100010000007011010059
:101290000000000070110100010000007011010049
:1012A0000000000000002110422063308440A5505F
:1012B000C660E770088129914AA16BB18CC1ADD19C
:1012C000CEE1EFF10120C046002801D0FFF7A2FFD8
:1012D000AFF300800020AFF30080FFF75EF800F06E
:1012E00000F800F001B800000746384600F002F8A8
:1012F000FBE7000080B5AFF30080024A1100182020
:10130000ABBEFBE7260002000148804701480047CA
:101310002913000819130008AFF30080AFF3008011
:0A132000FFF7D0FFFFF7FEBF704794
:0400000508001319C3
:00000001FF
