:020000040800F2
:1000000008080020D10700080F05000811050008A6
:10001000130500081505000817050008000000007A
:1000200000000000000000000000000019050008AA
:100030001B050008000000001D0500081F05000842
:10004000ED070008F1070008F5070008F9070008A8
:10005000FD07000801080008050800080908000855
:100060000D08000811080008150800081908000804
:100070001D080008210800082508000829080008B4
:100080002D08000831080008350800083908000864
:100090003D08000841080008450800084908000814
:1000A0004D080008210500085108000855080008FF
:1000B00023050008590800085D08000861080008C9
:1000C00065080008690800086D0800087108000844
:1000D00075080008790800087D08000881080008F4
:1000E00085080008890800088D08000810F007003E
:1000F000DFF890331A684FF6FF010A40DFF88813E3
:1001000051EA00210A431A607047DFF8780300685B
:10011000C0F302207047010049B2002908D401222F
:1001200010F01F018A40D94940B2400941F820200F
:100130007047020052B2002A04D40901D44A40B2E6
:10014000115407E00901D34A40B210F00F001044E7
:1001500000F8041C704710B410F00700D0F107033A
:10016000052B01D3042301E0D0F10703041D072C64
:1001700001D2002000E0C01E012414FA03F35B1E2C
:100180001940814014FA00F0401E1040084310BC92
:100190007047C148016851F4803101607047BE4822
:1001A0000068400C10F001007047BC490A689208D2
:1001B0009200104308607047B848006810F00C00C7
:1001C0007047B6490A6832F0F00210430860704781
:1001D000B2490A6832F4E062104308607047AF49E0
:1001E0000A6832F46052104308607047AA480168F8
:1001F00051F0807101607047A7480068400E10F010
:1002000001007047A54A136833F47C1310F44030A2
:10021000184308431060704781B0A1490A6802433F
:100220000A60096808400090009801B0704781B0EA
:100230009C490A6802430A600968084000900098D7
:1002400001B0704798490A68D208D200104308608C
:1002500070479548006810F007007047016851F03A
:100260008001016070478368904A134019438160A0
:100270007047426832F070021143416070478168F4
:1002800031F0800181607047C1F30F2141617047F7
:100290008748016831F0E0610160016851F0007148
:1002A0000160704780B50120FFF7C1FF5FF080500B
:1002B000FFF7B2FF0320FFF719FFFFF7E9FF00F098
:1002C00009F800F0ABF800F054F800F07CF800F00A
:1002D00034F8FEE710B50220FFF7B4FFFFF7B9FFCF
:1002E0000228FBD1FFF755FFFFF759FF0128FBD18B
:1002F0005FF4E0115FF48030FFF784FFFFF776FFD3
:10030000FFF77AFF0128FBD10020FFF75AFF4FF4D7
:100310008060FFF75DFF0020FFF761FF0220FFF71D
:1003200044FFFFF749FF0828FBD1624C200000F092
:10033000D9F8200000F0DCF810BD80B5FFF7E5FE2D
:1003400000220021FFF707FF01001920FFF7F1FE4F
:100350001920FFF7E0FEFFF7D8FE00220021FFF78B
:10036000FAFE01001C20FFF7E4FE1C20FFF7D3FE7D
:1003700001BD18B585B06846142100F0C5F84FF4EA
:100380000060FFF754FF4720ADF800000020019007
:10039000642002900020039000200490464C69469F
:1003A000200000F0CAF82000FFF758FF00212000CD
:1003B000FFF759FF00212000FFF75BFF2000FFF748
:1003C0005EFF06B010BD00B585B06846142100F090
:1003D0009BF80120FFF720FF0020ADF8000000206F
:1003E0000190642002900020039069465FF08040F5
:1003F00000F0A3F85FF08040FFF730FF00215FF0CE
:100400008040FFF730FF00215FF08040FFF731FFB1
:100410005FF08040FFF733FF05B000BDF0B585B059
:100420006846142100F070F81020FFF700FF20202C
:10043000FFF7FDFE0420FFF7FAFE204E204F3900A3
:100440003000FFF721FF1F4C1F4D29002000FFF750
:100450001BFF0097012001900220029000200390D2
:100460006946300000F000F900950120019002205B
:100470000290002003906946200000F0F5F805B0D6
:10048000F0BD00000CED00E00000FA0500E100E026
:1004900000E400E018ED00E000100240041002400B
:1004A0001C1002401810024000200240F8BFFFFF5D
:1004B0000400014000A24A04002C01400010014049
:1004C000200020040008014001000104B0FBF1F00D
:1004D000401E0949086000200849086005200849B5
:1004E0000860704780B54FF47A71FFF7EFFF01BDE8
:1004F000044908607047000014E000E018E000E0E4
:1005000010E000E000000020002200F0EFB8FEE75D
:10051000FEE7FEE7FEE7FEE770477047704770476B
:100520007047704781627047C162704701637047CE
:10053000416951F001014161704770B504000D003F
:100540002168DFF87060B4420AD0B4F1804F07D060
:10055000DFF86400844203D0DFF86000844203D1F6
:1005600031F0700168680143B4420AD0B4F1804FA1
:1005700007D0DFF84400844203D0DFF84000844213
:1005800003D131F44071E86801432160A96820007B
:10059000FFF7CAFF29882000FFF7C4FFB44203D148
:1005A00029692000FFF7C2FF2000FFF7C1FF0020EC
:1005B00070BD0000002C0140000400400008004015
:1005C00070B410EB116091FAA1F3B3FA83F391FACE
:1005D000A1F1B1FA81F405680F26DBB299008E40D3
:1005E000B543E4B2A1008A402A43026070BC704760
:1005F00070B410EB116091FAA1F3B3FA83F391FA9E
:10060000A1F1B1FA81F405680326DBB299008E40AE
:10061000B543E4B2A1008A402A43026070BC70472F
:1006200070B410EB116091FAA1F3B3FA83F391FA6D
:10063000A1F1B1FA81F405680426DBB299008E407D
:10064000B543E4B2A1008A402A43026070BC7047FF
:10065000C36833EA1123090A91FAA1F1B1FA81F1D1
:100660008A401A43C26070472DE9F04104000D0032
:100670002E683602360C96FAA6F0B0FA80F72EE015
:100680005FF001103900B1F1080810FA08F858F0CD
:10069000806809E03000F840C0071FD5082FEFD26E
:1006A00040F2011818FA07F82A6941462000FFF7BE
:1006B000CFFF6A6841462000FFF782FF6868012883
:1006C00002D06868092809D1AA6841462000FFF7CE
:1006D0008FFFEA6841462000FFF7A2FF7F1C300031
:1006E000F8400028D6D10020BDE8F08100B500BF59
:1006F000130096469446103928BFA0E80C50FAD84B
:100700005FEA417C28BF0CC048BF40F8042BC907F2
:1007100028BF20F8022B48BF00F8012B00BD30B4E1
:1007200050F8041B79B10268436802440830DC07C2
:1007300044BFA9F10104E31852F8045B43F8045BD9
:10074000091FF9D1ECE730BC7047000010B507492C
:1007500079441831064C7C44163404E00A68081DBC
:10076000114488470146A142F8D110BD080000009D
:1007700018000000ABFFFFFF0400000014010000A0
:10078000000000200000000000F00DF8002801D05B
:10079000FFF7DCFFAFF300800020AFF30080FFF72E
:1007A00081FD00F002F80120704700F001B8000060
:1007B0000746384600F002F8FBE7000080B5AFF3CB
:1007C0000080024A11001820ABBEFBE726000200A1
:1007D000014880470148004795080008E1070008E4
:1007E000AFF30080AFF30080FFF7CEFFFFF7FEBF4F
:1007F000FFF7FEBFFFF7FEBFFFF7FEBFFFF7FEBF2D
:10080000FFF7FEBFFFF7FEBFFFF7FEBFFFF7FEBF1C
:10081000FFF7FEBFFFF7FEBFFFF7FEBFFFF7FEBF0C
:10082000FFF7FEBFFFF7FEBFFFF7FEBFFFF7FEBFFC
:10083000FFF7FEBFFFF7FEBFFFF7FEBFFFF7FEBFEC
:10084000FFF7FEBFFFF7FEBFFFF7FEBFFFF7FEBFDC
:10085000FFF7FEBFFFF7FEBFFFF7FEBFFFF7FEBFCC
:10086000FFF7FEBFFFF7FEBFFFF7FEBFFFF7FEBFBC
:10087000FFF7FEBFFFF7FEBFFFF7FEBFFFF7FEBFAC
:10088000FFF7FEBFFFF7FEBFFFF7FEBFFFF7FEBF9C
:060890000024F400704793
:04000005080007E107
:00000001FF
