:020000040800F2
:10000000180B002055100008F70E0008F90E000824
:10001000FB0E0008FD0E0008FF0E000800000000A7
:10002000000000000000000000000000010F0008B8
:10003000030F000800000000050F0008070F00086C
:100040007110000875100008791000087D10000874
:100050008110000885100008891000088D10000824
:100060009110000895100008991000089D100008D4
:10007000A1100008A5100008A9100008AD10000884
:10008000B1100008B5100008B9100008BD10000834
:10009000C1100008C5100008C9100008CD100008E4
:1000A000D1100008090F0008D5100008D910000869
:1000B000690F0008DD100008E1100008E5100008D5
:1000C000E9100008ED100008F1100008F510000814
:1000D000F9100008FD1000080111000805110008C2
:1000E000091100080D1100081111000810F0070097
:1000F000DFF84C2513684FF6FF010B40DFF844157D
:1001000051EA00210B4313607047DFF834050068A3
:10011000C0F302207047010049B2002909D401222E
:1001200010F01F018A40DFF8201540B2400941F865
:1001300020207047020052B2002A05D40901DFF8DE
:100140000C2540B2115408E00901DFF8042540B243
:1001500010F00F00104400F8041C704710B410F0A9
:100160000700D0F10703052B01D3042301E0D0F1F0
:100170000703041D072C01D2002000E0C01E01244B
:1001800014FA03F35B1E1940814014FA00F0401E7C
:100190001040084310BC7047DFF8B804016851F400
:1001A000803101607047DFF8AC040068400C10F04B
:1001B00001007047DFF8A0140A689208920010430B
:1001C00008607047DFF89004006810F00C0070477A
:1001D000DFF884140A6832F0F002104308607047B8
:1001E000DFF874140A6832F4E06210430860704764
:1001F000DFF864140A6832F46052104308607047F4
:10020000DFF85004016851F0807101607047DFF839
:1002100044040068400E10F001007047DFF83824F5
:10022000136833F47C1310F4403018430843106013
:10023000704781B0DFF824140A6802430A60096835
:1002400008400090009801B0704781B0DFF81014AA
:100250000A6802430A60096808400090009801B0EB
:100260007047DFF800140A68D208D2001043086013
:100270007047DFF8F003006810F00700704710B512
:100280000400200000F1040388422CBF9A4200F0D1
:100290002BFA006850F00100206010BD10B504007A
:1002A000200000F1040388422CBF9A4200F01CFA9F
:1002B000006850F08000206010BD30B504000D00D3
:1002C00011001A0014F1080000F1040388422CBF49
:1002D0009A4200F009FA0168E34801400D43A56025
:1002E00030BD30B504000D0011001A00201D00F1D2
:1002F000040388422CBF9A4200F0F6F9006830F0FF
:1003000070000543656030BD10B5040014F10800AD
:1003100000F1040388422CBF9A4200F0E5F900681E
:1003200030F08000A06010BD10B5040014F10C0086
:1003300000F1040388422CBF9A4200F0D5F900680E
:1003400050F00100E06010BD10B50C0011001A0063
:10035000143000F1040388422CBF9A4200F0C4F923
:10036000C4F30F21016010BD30B504000D00110071
:1003700014F10C001A0000F1080388422CBF9A42C5
:1003800000F0B2F90068C5F30F2111EA000231EA6A
:10039000000050EA0240206130BDB448016831F0ED
:1003A000E0610160016851F00071016070471CB5A7
:1003B0000120FFF74AFF5FF08050FFF73AFF04206B
:1003C000009001AA6946684600F098F90320FFF7FB
:1003D0008DFEFFF7E2FF00F01DF800F0E7F800F0F7
:1003E00068F800F0A4F800F048F8A148A14A01001C
:1003F000FFF745FF01E0002020709F489F4B02005F
:100400009F49FFF7B1FF9F4C20780028F5D000F0FE
:100410008DF9F0E710B50220FFF723FFFFF729FF62
:100420000228FBD1FFF7B8FEFFF7BDFE0128FBD184
:100430005FF4E0115FF48030FFF7F0FEFFF7E0FEBD
:10044000FFF7E5FE0128FBD10020FFF7C1FE4FF4C6
:100450008060FFF7C5FE0020FFF7CAFE0220FFF70D
:10046000A9FEFFF7AFFE0828FBD1874C200000F063
:1004700035FA200000F038FA10BD80B5FFF745FED0
:1004800000220021FFF76AFE01001920FFF752FE4B
:100490001920FFF740FEFFF738FE00220021FFF78A
:1004A0005DFE01001C20FFF745FE1C20FFF733FE18
:1004B00001BD30B587B002A8142100F021FA4FF435
:1004C0000060FFF7C2FE4720ADF80800002003904F
:1004D000012004900020059000200690644C654D9A
:1004E00007A8019002A800902B00220002A920007A
:1004F00000F060FA2A0021002000FFF7CFFE2B0059
:10050000220000212000FFF7D8FE2B00220000214E
:100510002000FFF7E6FE2A0021002000FFF7F4FE8E
:100520002A0021002000FFF7FFFE07B030BD18B5FC
:1005300087B002A8142100F0E3F90120FFF779FE4B
:100540000020ADF8080000200390642004900020F3
:1005500005904E4C07A8019002A8009023005FF080
:10056000804202A95FF0804000F024FA22005FF090
:1005700080415FF08040FFF791FE23005FF08042F2
:1005800000215FF08040FFF798FE23005FF080427B
:1005900000215FF08040FFF7A4FE22005FF0804161
:1005A0005FF08040FFF7B0FE08B010BD2DE9F043CA
:1005B00087B002A8142100F0A3F91020FFF745FE30
:1005C0002020FFF742FE0420FFF73FFEDFF8B09047
:1005D000294C2A4D2B00220049462000FFF7B4FE8B
:1005E0002B4E2C4FDFF8B08043463A0031003800E4
:1005F000FFF7AAFECDF80890012003900220049096
:100600000020059007A8019002A800902B0022006E
:1006100002A9200000F0EAFA0296012003900220CD
:1006200004900020059007A8019002A8009043467E
:100630003A0002A9380000F0D9FA07B0BDE8F0830B
:100640000CED00E00000FA0500E100E000E400E04D
:1006500018ED00E000100240041002401C1002409F
:100660001810024000200240F8BFFFFF04000140C4
:10067000002C0140542C0140001001401C1001408E
:10068000200020041303002000A24A04540000406C
:1006900001000104000801401C080140F0B58BB0C6
:1006A00004460D4616461F466946284600F01DFBC7
:1006B00030B100990A480991019902900A9101E02C
:1006C00008490291119A109904940392059706958E
:1006D0000796089102A800F02FFB0BB0F0BD0000B8
:1006E0002A000009050000071FB582B0CDF804E01C
:1006F000CDF800E0FFF7D2FF02B01FBD00B500F15A
:10070000040388422CBF9A42FFF7EEFF0068644959
:1007100008600020634908600120634908800020C8
:100720006249088047206249088000BDF8B55D4DE8
:10073000604C286804EBC00014F584763200210078
:1007400000F1040388422CBF9A42FFF7CDFF0068F6
:10075000022823D2286854F83000002801D100F084
:10076000F3FA0120504908800020504908802320D6
:100770004F490880286804EBC000001D32002100AA
:1007800000F1010388422CBF9A42FFF7ADFF0078C9
:100790004949087000204949087080E0286854F8E9
:1007A0003000801E4FF6FD71884224D2286804EB89
:1007B000C0003200210000F1050388422CBF9A429C
:1007C000FFF792FF0068401E374908800020374934
:1007D0000880472036490880286804EBC00000796B
:1007E00035490870002036490870002033490870E8
:1007F00000F0AAFA53E0286854F83000B0F5803FC2
:1008000029D32F4F3878002825D14FF6FF7026497D
:100810000880286804EBC0003200210000F10503C5
:1008200088422CBF9A42FFF75FFF00684FF6FF71C6
:10083000B0FBF1F01D49088047201D490880286859
:1008400004EBC00000791C49087000201B490870A7
:100850000120387023E0286854F83000B0F5803F5C
:100860001DD317490878002819D0286854F830207B
:100870004FF6FF70B2FBF0F34FF6FF7000FB132250
:100880000948028047200A4A10800020074A108049
:1008900000200A4A10700020087000F055FAF1BDDF
:1008A00004030020080300200C0300200E03002096
:1008B000100300200000002012030020130300207A
:1008C00014030020B0FBF1F0401E0949086000202D
:1008D00008490860052008490860704780B54FF452
:1008E0007A71FFF7EFFF01BD04490860704700000F
:1008F00014E000E018E000E010E000E00801002053
:10090000002200F033BA30B4002513E050F8042B75
:10091000D30744BFA9F101039A18091F042942F81B
:10092000045BFAD213468C0744BF15809B1CC90791
:1009300048BF1D7050F8041B0029E7D130BC704738
:1009400010B50C0011001A00283000F10403884291
:100950002CBF9A42FFF7C8FE046010BD10B50C0012
:1009600011001A002C3000F1040388422CBF9A4277
:10097000FFF7BAFE046010BD10B50C0011001A009C
:10098000303000F1040388422CBF9A42FFF7ACFEDE
:10099000046010BD10B5040014F1140000F104034C
:1009A00088422CBF9A42FFF79FFE006850F001007A
:1009B000606110BD2DE9F84F0400894615001E0046
:1009C0000B9F20005FF004083200290000EB0803B1
:1009D00088422CBF9A42FFF787FED0F800B0DFF8BC
:1009E000F8A054450AD0B4F1804F07D0DFF8EC00EE
:1009F000844203D0DFF8E800844213D119F10400E7
:100A000000903A000A990098001F00F10C038842F8
:100A10002CBF9A42FFF768FE3BF0700B009800680D
:100A200050EA0B0B54450AD0B4F1804F07D0DFF8E1
:100A3000AC00844203D0DFF8A800844213D119F13E
:100A40000C0000903A000A9900980C3800F110034D
:100A500088422CBF9A42FFF747FE3BF4407B009848
:100A6000006850EA0B0BC4F800B019F1080B3A000B
:100A70000A99BBF1080000F10C0388422CBF9A428E
:100A8000FFF732FE33002A00DBF800102000FFF7EA
:100A900065FF33002A00B9F800102000FFF750FF6F
:100AA000544510D119F110003A000A9900EB0803DF
:100AB00088422CBF9A42FFF717FE33002A000168D4
:100AC0005046FFF759FF320029002000FFF762FF70
:100AD0000020BDE8F28F0000002C0140000400401F
:100AE00000080040F0B505001400059A15EB1165EB
:100AF00091FAA1F0B0FA80F691FAA1F0B0FA80F77D
:100B00002800190000F1040388422CBF9A42FFF725
:100B1000EBFD01680F22B00082409143B800844091
:100B20000C432C60F0BDF0B505001400059A15EBE0
:100B3000116591FAA1F0B0FA80F691FAA1F0B0FA3D
:100B400080F72800190000F1040388422CBF9A4264
:100B5000FFF7CAFD01680322B00082409143B8004C
:100B600084400C432C60F0BD2DE9F04105001400D9
:100B7000069A15EB116591FAA1F0B0FA80F691FA98
:100B8000A1F0B0FA80F728005FF00408190000EB2C
:100B9000080388422CBF9A42FFF7A6FD0168B00007
:100BA00018FA00F831EA0808B800844054EA08044A
:100BB0002C60BDE8F08170B504000E001500049AA9
:100BC00014F10C00190000F1040388422CBF9A4272
:100BD000FFF78AFD016831EA1621360A96FAA6F077
:100BE000B0FA80F085400D43E56070BD2DE9F84F07
:100BF00004000D0016001F0028000B9A0A9900F14E
:100C0000040388422CBF9A42FFF76EFDD0F80080A3
:100C10005FEA08285FEA184898FAA8F0B0FA80F965
:100C200047E05FF001104946B1F1080A10FA0AFAEC
:100C30005AF0806A0BE0404630FA09F0C00736D51A
:100C4000B9F1080FEDD240F2011A1AFA09FA15F1BA
:100C5000100B0B9A0A99BBF10C0000F110038842AB
:100C60002CBF9A42FFF740FD00973300DBF80020CD
:100C700051462000FFF79FFF009733006A685146F6
:100C80002000FFF72FFF6868012802D06868092854
:100C90000DD100973300AA6851462000FFF743FFAB
:100CA00000973300EA6851462000FFF75DFF19F115
:100CB0000109404630FA09F00028BCD10020BDE807
:100CC000F28F000010F007010DD1DFF8681000E08E
:100CD000896841B10A689042FAD34B681A4490423D
:100CE000F6D2012070470020704738B505460C4603
:100CF000AFF30080BDB12846FFF7E4FF98B1284666
:100D000000F0E7F80546DFF82820A9688908091DE2
:100D100000F076F838B124B1286820606968890845
:100D20006160012032BDAFF30080002032BD0000C1
:100D30000C010020EC02002000B501000148ABBE10
:100D400000BD00001127000006480168064A12682D
:100D5000521E914203D20168491C016001E000214A
:100D600001607047080300200403002000B500BFA5
:100D7000130096469446103928BFA0E80C50FAD8C4
:100D80005FEA417C28BF0CC048BF40F8042BC9076C
:100D900028BF20F8022B48BF00F8012B00BD00003F
:100DA00030B403F0030303E0032B88BF0023401C8F
:100DB000884206D01C46631C0578145DA542F3D01A
:100DC00000E002E0002030BC7047012030BC7047DA
:100DD00070B4821C002303E0042B28BF0023521CA4
:100DE000041DA24209D01C460E19631C1578B47864
:100DF000A542F1D0002070BC7047012070BC704744
:100E0000F8B505460E46144600F045F8297B6A7B86
:100E100042EA012290423AD1214605F10C00FFF747
:100E2000D7FFA0B3AF682A79A919BF08E81902F063
:100E30000302032A1DD1A7F11003042B0AD2281D97
:100E40002246384401B08008BDE8F040C3F10403F5
:100E50008000A5E7002203E0042A28BF0022401CEE
:100E6000884216D013465A1C0578E35C9D42F3D0A5
:100E70000DE0002203E0042A28BF0022401C884223
:100E800007D013465A1C0578E35C9D42F3D000203E
:100E9000F2BD0120F2BD024670B44FF6FF700C2186
:100EA0000D4B12F8014B85B2260986EA253633F838
:100EB000165004F00F04491E85EA0015A8B284EA12
:100EC000203433F8140080EA0510EAD180B270BCF7
:100ED0007047103870470000EC0F000800B5103064
:100EE00000F1040388422CBF9A42FFF7FDFB7FF01C
:100EF0000101016000BDFEE7FEE7FEE7FEE7FEE759
:100F0000704770477047704780B50D4800880D499D
:100F100008600D4800880D4908600D4800880D499B
:100F200008600D48016891F48071016001200B494F
:100F300008700B490B4A0800FFF7D0FF01BD000005
:100F40000C0300202C2C01400E030020302C01400B
:100F500010030020282C01400C080140130300203E
:100F6000002C0140542C0140704730B50168846862
:100F70004218416802EB5103C9070BD54C4409E004
:100F800012F9011B12F8015B002904F8015B05D579
:100F9000491CF9D19A42F3D10C3030BD491EF1D52C
:100FA000F8E7000010B5074979441831064C7C4435
:100FB000163404E00A68081D114488470146A1421E
:100FC000F8D110BD08000000240000003BF9FFFF2D
:100FD000EC0100002C010020000000008FFFFFFF4B
:100FE0003601000072000000000000200000211007
:100FF000422063308440A550C660E7700881299183
:101000004AA16BB18CC1ADD1CEE1EFF100F00DF88A
:10101000002801D0FFF7C6FFAFF300800020AFF338
:101020000080FFF7C4F900F002F80120704700F0DB
:1010300001B800000746384600F002F8FBE7000060
:1010400080B5AFF30080024A11001820ABBEFBE769
:10105000260002000148804701480047151100089A
:1010600065100008AFF30080AFF30080FFF7CEFFFC
:10107000FFF7FEBFFFF7FEBFFFF7FEBFFFF7FEBFA4
:10108000FFF7FEBFFFF7FEBFFFF7FEBFFFF7FEBF94
:10109000FFF7FEBFFFF7FEBFFFF7FEBFFFF7FEBF84
:1010A000FFF7FEBFFFF7FEBFFFF7FEBFFFF7FEBF74
:1010B000FFF7FEBFFFF7FEBFFFF7FEBFFFF7FEBF64
:1010C000FFF7FEBFFFF7FEBFFFF7FEBFFFF7FEBF54
:1010D000FFF7FEBFFFF7FEBFFFF7FEBFFFF7FEBF44
:1010E000FFF7FEBFFFF7FEBFFFF7FEBFFFF7FEBF34
:1010F000FFF7FEBFFFF7FEBFFFF7FEBFFFF7FEBF24
:10110000FFF7FEBFFFF7FEBFFFF7FEBFFFF7FEBF13
:10111000FFF7FEBF704704581B000001FD000140AF
:101120001FFA00042823000001FD000110278100A0
:1011300090000124F4F7000F2B3284179783BC4FE3
:0F1140003F2244FCE529EF31FD0001400AFD008C
:04000005080010657A
:00000001FF
