:020000040800F2
:10000000100800208D0B00086D0A00086F0A000818
:10001000710A0008730A0008750A00080000000051
:10002000000000000000000000000000770A000847
:10003000790A0008000000007B0A00087D0A000819
:10004000B50B0008B90B0008BD0B0008C10B000878
:10005000C50B0008C90B0008CD0B0008D10B000828
:10006000D50B0008D90B0008DD0B0008E10B0008D8
:10007000E50B0008E90B0008ED0B0008F10B000888
:10008000F50B0008F90B0008FD0B0008010C000837
:10009000050C0008090C00080D0C0008110C0008E4
:1000A000150C00087F0A0008190C00081D0C000838
:1000B000D90A0008210C0008250C0008290C0008AA
:1000C0002D0C0008310C0008350C0008390C000814
:1000D0003D0C0008410C0008450C0008490C0008C4
:1000E0004D0C0008510C0008550C000810F00700DA
:1000F000DFF8E0331A684FF6FF010A40DFF8D81343
:1001000051EA00210A431A607047DFF8C80300680B
:10011000C0F302207047010049B2002909D401222E
:1001200010F01F018A40DFF8B41340B2400941F8D3
:1001300020207047020052B2002A05D40901DFF8DE
:10014000A02340B2115408E00901DFF8982340B21F
:1001500010F00F00104400F8041C704710B410F0A9
:100160000700D0F10703052B01D3042301E0D0F1F0
:100170000703041D072C01D2002000E0C01E01244B
:1001800014FA03F35B1E1940814014FA00F0401E7C
:100190001040084310BC7047D348016851F48031C7
:1001A00001607047D0480068400C10F001007047B3
:1001B000CE490A6892089200104308607047CB4805
:1001C000006810F00C007047C8490A6832F0F0026D
:1001D000104308607047C5490A6832F4E062104372
:1001E00008607047C1490A6832F4605210430860E1
:1001F0007047BD48016851F0807101607047BA488E
:100200000068400E10F001007047B84A136833F4DC
:100210007C1310F44030184308431060704781B0DD
:10022000B3490A6802430A600968084000900098D0
:1002300001B0704781B0AF490A6802430A6009689B
:1002400008400090009801B07047AB490A68D20896
:10025000D200104308607047A748006810F00700FC
:100260007047016851F0010101607047016851F069
:100270008001016070478368A04A13401943816080
:100280007047426832F070021143416070478168E4
:1002900031F0800181607047C16851F00101C16097
:1002A0007047C1F30F21416170479548016831F0F3
:1002B000E0610160016851F000710160704718B59C
:1002C000ADF50B7D0120FFF7B5FF5FF08050FFF724
:1002D000A6FF0320FFF70AFFFFF7E7FF00F020F873
:1002E00047A888494FF4887200F01CF9212247A9D9
:1002F000684600F05AF900F0BAF800F060F800F033
:100300008BF800F040F88048FFF7ABFF7F4C207877
:100310000028FBD0684600F073F900202070F5E754
:1003200010B50220FFF791FFFFF796FF0228FBD1DF
:10033000FFF732FFFFF736FF0128FBD15FF4E01132
:100340005FF48030FFF761FFFFF753FFFFF757FFC0
:100350000128FBD10020FFF737FF4FF48060FFF743
:100360003AFF0020FFF73EFF0220FFF721FFFFF7D3
:1003700026FF0828FBD1664C200000F0C5F92000BC
:1003800000F0C8F910BD80B5FFF7BFFE00220021C4
:10039000FFF7E4FE01001920FFF7CCFE1920FFF75C
:1003A000BAFEFFF7B2FE00220021FFF7D7FE0100E0
:1003B0001C20FFF7BFFE1C20FFF7ADFE01BD18B5E6
:1003C00085B06846142100F0B1F94FF40060FFF7E2
:1003D00031FF4720ADF8000000200190012002907D
:1003E0000020039000200490474C6946200000F054
:1003F000ACF92000FFF73AFF00212000FFF73BFF98
:1004000000212000FFF73DFF2000FFF740FF200004
:10041000FFF742FF06B010BD00B585B06846142155
:1004200000F084F90120FFF7FAFE0020ADF800008B
:1004300000200190642002900020039069465FF044
:10044000804000F082F95FF08040FFF70FFF00214D
:100450005FF08040FFF70FFF00215FF08040FFF763
:1004600010FF5FF08040FFF712FF05B000BDF0B550
:1004700085B06846142100F059F91020FFF7DAFE24
:100480002020FFF7D7FE0420FFF7D4FE214E224F95
:1004900039003000FFF705FF204C214D29002000D6
:1004A000FFF7FFFE0097012001900220029000203C
:1004B00003906946300000F0DFF9009501200190BB
:1004C00002200290002003906946200000F0D4F939
:1004D00005B0F0BD0CED00E00000FA0500E100E021
:1004E00000E400E018ED00E00010024004100240BB
:1004F0001C1002401810024000200240F8BFFFFF0D
:100500000400014054090008002C01400B000020A9
:1005100000A24A040010014020002004000801400D
:1005200001000104103A07D330B4B1E83810103A92
:10053000A0E83810F9D230BC530724BFB1E8081046
:10054000A0E8081044BF51F8043B40F8043BD20730
:1005500024BF31F8022B20F8022B44BF0B78037024
:100560007047121F17D35B0009D151F8043B20F8E4
:10057000023B1B0C121F20F8023BF6D20BE051F895
:10058000043B00F8013B1B0A20F8023B1B0C121F26
:1005900000F8013BF3D238BF121D521E24BF11F8E0
:1005A000013B00F8013BF8D8704770B4002380F895
:1005B00016310023C0F808310023C0F80C310023A5
:1005C000A0F818310023A0F810310023A0F8123150
:1005D0000023A0F81431002308E001EBC306D6E99C
:1005E000004500EBC306C6E900455B1CD0F8084196
:1005F000641EA342F1D3C0F8082170BC704700000C
:1006000010B5040094F81601002811D0D4F80C019C
:1006100054F830004FF6FF71B0FBF1F201FB12000D
:10062000A4F81001002084F81601200000F066F9FB
:10063000D4F80C0154F8300002281ED2D4F80C0172
:1006400054F83000002802D1200000F057F90120B2
:10065000A4F810010020A4F812012320A4F814012A
:10066000D4F80C0104EBC000007920490870D4F8DC
:100670000C01401CC4F80C0137E0D4F80C0154F80C
:100680003000801E4FF6FD71884216D2D4F80C015E
:1006900054F83000A4F810010020A4F812014720FB
:1006A000A4F81401D4F80C0104EBC00000790F4940
:1006B0000870200000F022F917E04FF6FF70A4F850
:1006C0001001D4F80C0154F830004FF6FF71B0FB64
:1006D000F1F0A4F81201D4F80C0104EBC000007989
:1006E00002490870012084F8160110BD0A0000209C
:1006F000B0FBF1F0401E094908600020084908607D
:10070000052008490860704780B54FF47A71FFF7FB
:10071000EFFF01BD044908607047000014E000E0ED
:1007200018E000E010E000E000000020002200F0EF
:10073000F7B8000081627047C1627047016370477B
:10074000416951F001014161704770B504000D002D
:100750002168DFF87060B4420AD0B4F1804F07D04E
:10076000DFF86400844203D0DFF86000844203D1E4
:1007700031F0700168680143B4420AD0B4F1804F8F
:1007800007D0DFF84400844203D0DFF84000844201
:1007900003D131F44071E86801432160A968200069
:1007A000FFF7CAFF29882000FFF7C4FFB44203D136
:1007B00029692000FFF7C2FF2000FFF7C1FF0020DA
:1007C00070BD0000002C0140000400400008004003
:1007D00070B410EB116091FAA1F3B3FA83F391FABC
:1007E000A1F1B1FA81F405680F26DBB299008E40C1
:1007F000B543E4B2A1008A402A43026070BC70474E
:1008000070B410EB116091FAA1F3B3FA83F391FA8B
:10081000A1F1B1FA81F405680326DBB299008E409C
:10082000B543E4B2A1008A402A43026070BC70471D
:1008300070B410EB116091FAA1F3B3FA83F391FA5B
:10084000A1F1B1FA81F405680426DBB299008E406B
:10085000B543E4B2A1008A402A43026070BC7047ED
:10086000C36833EA1123090A91FAA1F1B1FA81F1BF
:100870008A401A43C26070472DE9F04104000D0020
:100880002E683602360C96FAA6F0B0FA80F72EE003
:100890005FF001103900B1F1080810FA08F858F0BB
:1008A000806809E03000F840C0071FD5082FEFD25C
:1008B00040F2011818FA07F82A6941462000FFF7AC
:1008C000CFFF6A6841462000FFF782FF6868012871
:1008D00002D06868092809D1AA6841462000FFF7BC
:1008E0008FFFEA6841462000FFF7A2FF7F1C30001F
:1008F000F8400028D6D10020BDE8F081D0F80C11D6
:10090000D0F80821521E914205D2D0F80C11491C92
:10091000C0F80C1102E00421C0F80C11704700006F
:1009200000B500BF130096469446103928BFA0E8D2
:100930000C50FAD85FEA417C28BF0CC048BF40F891
:10094000042BC90728BF20F8022B48BF00F8012B51
:1009500000BD000000000000000000000A000000D0
:10096000010000008728000000000000132900009B
:10097000010000004A000000000000003E2A0000C4
:1009800001000000CE030000000000006A2B000000
:10099000010000000F00000000000000042D000016
:1009A00001000000C1020000000000005B00000028
:1009B00001000000822E0000000000008C2E0000CC
:1009C000010000004B2F0000000000000A000000A2
:1009D00001000000143000000000000014000000BE
:1009E00001000000DD300000000000003331000095
:1009F000010000000A0000000000000014000000D8
:100A0000010000000B000000000000006200000078
:100A1000010000003833000000000000200000004A
:100A20000100000039010000000000000900000082
:100A300001000000020200000000000004000000AD
:100A4000010000009335000000000000553900004F
:100A5000010000003C00000000000000B0B30000F6
:100A6000010000007FF0010101617047FEE7FEE731
:100A7000FEE7FEE7FEE7704770477047704780B5B6
:100A80000B4800880B4908600B4800880B49086038
:100A90000B4800880B4908600B48007800020B499E
:100AA000086001200A4908700A48FFF7DBFF01BD12
:100AB000040000202C2C014006000020302C0140B6
:100AC00008000020282C01400A0000200C080140EA
:100AD0000B000020002C0140704730B450F8041B7C
:100AE00079B10268436802440830DC0744BFA9F1C9
:100AF0000104E31852F8045B43F8045B091FF9D1C1
:100B0000ECE730BC7047000010B507497944183154
:100B1000064C7C44163404E00A68081D11448847DA
:100B20000146A142F8D110BD0800000018000000E5
:100B3000ABFFFFFF0C000000700000000000002071
:100B40000000000000F00DF8002801D0FFF7DCFFE6
:100B5000AFF300800020AFF30080FFF7B0FB00F0A0
:100B600002F80120704700F001B80000074638463F
:100B700000F002F8FBE7000080B5AFF30080024A06
:100B800011001820ABBEFBE7260002000148804799
:100B900001480047590C00089D0B0008AFF3008086
:100BA000AFF30080FFF7CEFF0024F4000000000048
:100BB00000000000FFF7FEBFFFF7FEBFFFF7FEBF1C
:100BC000FFF7FEBFFFF7FEBFFFF7FEBFFFF7FEBF59
:100BD000FFF7FEBFFFF7FEBFFFF7FEBFFFF7FEBF49
:100BE000FFF7FEBFFFF7FEBFFFF7FEBFFFF7FEBF39
:100BF000FFF7FEBFFFF7FEBFFFF7FEBFFFF7FEBF29
:100C0000FFF7FEBFFFF7FEBFFFF7FEBFFFF7FEBF18
:100C1000FFF7FEBFFFF7FEBFFFF7FEBFFFF7FEBF08
:100C2000FFF7FEBFFFF7FEBFFFF7FEBFFFF7FEBFF8
:100C3000FFF7FEBFFFF7FEBFFFF7FEBFFFF7FEBFE8
:100C4000FFF7FEBFFFF7FEBFFFF7FEBFFFF7FEBFD8
:0A0C5000FFF7FEBFFFF7FEBF70477D
:0400000508000B9D47
:00000001FF
