:020000040800F2
:1000000008080020510A00083109000833090008D7
:100010003509000837090008390900080000000008
:100020000000000000000000000000003B09000884
:100030003D090008000000003F09000841090008D0
:10004000750A0008790A00087D0A0008810A00087C
:10005000850A0008890A00088D0A0008910A00082C
:10006000950A0008990A00089D0A0008A10A0008DC
:10007000A50A0008A90A0008AD0A0008B10A00088C
:10008000B50A0008B90A0008BD0A0008C10A00083C
:10009000C50A0008C90A0008CD0A0008D10A0008EC
:1000A000D50A000843090008D90A0008DD0A00083B
:1000B0009D090008E10A0008E50A0008E90A0008AD
:1000C000ED0A0008F10A0008F50A0008F90A00081C
:1000D000FD0A0008010B0008050B0008090B0008C9
:1000E0000D0B0008110B0008150B000810F007009D
:1000F000DFF8D0331A684FF6FF010A40DFF8C81363
:1001000051EA00210A431A607047DFF8B80300681B
:10011000C0F302207047010049B2002909D401222E
:1001200010F01F018A40DFF8A41340B2400941F8E3
:1001300020207047020052B2002A05D40901DFF8DE
:10014000902340B2115408E00901DFF8882340B23F
:1001500010F00F00104400F8041C704710B410F0A9
:100160000700D0F10703052B01D3042301E0D0F1F0
:100170000703041D072C01D2002000E0C01E01244B
:1001800014FA03F35B1E1940814014FA00F0401E7C
:100190001040084310BC7047CF48016851F48031CB
:1001A00001607047CC480068400C10F001007047B7
:1001B000CA490A6892089200104308607047C7480D
:1001C000006810F00C007047C4490A6832F0F00271
:1001D000104308607047C1490A6832F4E062104376
:1001E00008607047BD490A6832F4605210430860E5
:1001F0007047B948016851F0807101607047B64896
:100200000068400E10F001007047B44A136833F4E0
:100210007C1310F44030184308431060704781B0DD
:10022000AF490A6802430A600968084000900098D4
:1002300001B0704781B0AB490A6802430A6009689F
:1002400008400090009801B07047A7490A68D2089A
:10025000D200104308607047A348006810F0070000
:100260007047016851F0010101607047016851F069
:1002700080010160704783689C4A13401943816084
:100280007047426832F070021143416070478168E4
:1002900031F0800181607047C16851F00101C16097
:1002A0007047C1F30F21416170479148016831F0F7
:1002B000E0610160016851F000710160704780B534
:1002C000ADF50A7D0120FFF7B5FF5FF08050FFF725
:1002D000A6FF0320FFF70AFFFFF7E7FF00F017F87C
:1002E00000F0BCF800F062F800F08DF800F042F881
:1002F00046A880494FF4887200F00AF9222246A9E4
:10030000684600F048F97C48FFF7ABFFFEE710B500
:100310000220FFF79AFFFFF79FFF0228FBD1FFF7AC
:100320003BFFFFF73FFF0128FBD15FF4E0115FF4D3
:100330008030FFF76AFFFFF75CFFFFF760FF0128DF
:10034000FBD10020FFF740FF4FF48060FFF743FF31
:100350000020FFF747FF0220FFF72AFFFFF72FFFDC
:100360000828FBD1654C200000F042F9200000F085
:1003700045F910BD80B5FFF7C8FE00220021FFF748
:10038000EDFE01001920FFF7D5FE1920FFF7C3FE8F
:10039000FFF7BBFE00220021FFF7E0FE01001C205A
:1003A000FFF7C8FE1C20FFF7B6FE01BD18B585B0EB
:1003B0006846142100F02EF94FF40060FFF73AFF71
:1003C0004720ADF80000002001900120029000209D
:1003D000039000200490484C6946200000F029F961
:1003E0002000FFF743FF00212000FFF744FF00211A
:1003F0002000FFF746FF2000FFF749FF2000FFF72E
:100400004BFF06B010BD00B585B06846142100F062
:1004100001F90120FFF703FF0020ADF800000020E4
:100420000190642002900020039069465FF08040B4
:1004300000F0FFF85FF08040FFF718FF00215FF049
:100440008040FFF718FF00215FF08040FFF719FFA1
:100450005FF08040FFF71BFF05B000BDF0B585B031
:100460006846142100F0D6F81020FFF7E3FE2020A4
:10047000FFF7E0FE0420FFF7DDFE214E214F39009B
:100480003000FFF70EFF204C204D29002000FFF721
:1004900008FF0097012001900220029000200390A5
:1004A0006946300000F05CF90095012001900220BF
:1004B0000290002003906946200000F051F905B039
:1004C000F0BD00000CED00E00000FA0500E100E0E6
:1004D00000E400E018ED00E00010024004100240CB
:1004E0001C1002401810024000200240F8BFFFFF1D
:1004F0000400014018080008002C014000A24A0432
:100500000010014020002004000801400100010407
:10051000103A07D330B4B1E83810103AA0E83810D8
:10052000F9D230BC530724BFB1E80810A0E8081086
:1005300044BF51F8043B40F8043BD20724BF31F8D4
:10054000022B20F8022B44BF0B7803707047121F58
:1005500017D35B0009D151F8043B20F8023B1B0C78
:10056000121F20F8023BF6D20BE051F8043B00F8D2
:10057000013B1B0A20F8023B1B0C121F00F8013B39
:10058000F3D238BF121D521E24BF11F8013B00F8F0
:10059000013BF8D8704770B40023C0F8083100233D
:1005A000C0F80C310023A0F810310023A0F812315C
:1005B0000023A0F81431002308E001EBC306D6E9BC
:1005C000004500EBC306C6E900455B1C541EA34270
:1005D000F3D370BC70470000B0FBF1F0401E094936
:1005E0000860002008490860052008490860704735
:1005F00080B54FF47A71FFF7EFFF01BD0449086041
:100600007047000014E000E018E000E010E000E0B7
:1006100000000020002200F0E5B800008162704771
:10062000C162704701637047416951F00101416146
:10063000704770B504000D002168DFF87060B442A7
:100640000AD0B4F1804F07D0DFF86400844203D0B1
:10065000DFF86000844203D131F070016868014323
:10066000B4420AD0B4F1804F07D0DFF8440084428E
:1006700003D0DFF84000844203D131F44071E868D0
:1006800001432160A9682000FFF7CAFF29882000E4
:10069000FFF7C4FFB44203D129692000FFF7C2FF6E
:1006A0002000FFF7C1FF002070BD0000002C0140BA
:1006B000000400400008004070B410EB116091FA93
:1006C000A1F3B3FA83F391FAA1F1B1FA81F40568C9
:1006D0000F26DBB299008E40B543E4B2A1008A40F8
:1006E0002A43026070BC704770B410EB116091FA3D
:1006F000A1F3B3FA83F391FAA1F1B1FA81F4056899
:100700000326DBB299008E40B543E4B2A1008A40D3
:100710002A43026070BC704770B410EB116091FA0C
:10072000A1F3B3FA83F391FAA1F1B1FA81F4056868
:100730000426DBB299008E40B543E4B2A1008A40A2
:100740002A43026070BC7047C36833EA1123090A68
:1007500091FAA1F1B1FA81F18A401A43C26070475F
:100760002DE9F04104000D002E683602360C96FA91
:10077000A6F0B0FA80F72EE05FF001103900B1F179
:10078000080810FA08F858F0806809E03000F840CE
:10079000C0071FD5082FEFD240F2011818FA07F84A
:1007A0002A6941462000FFF7CFFF6A6841462000D2
:1007B000FFF782FF6868012802D06868092809D11C
:1007C000AA6841462000FFF78FFFEA6841462000F3
:1007D000FFF7A2FF7F1C3000F8400028D6D1002090
:1007E000BDE8F08100B500BF13009646944610396D
:1007F00028BFA0E80C50FAD85FEA417C28BF0CC0A3
:1008000048BF40F8042BC90728BF20F8022B48BF77
:1008100000F8012B00BD00000000000000000000F7
:100820000A0000000100000087280000000000000E
:1008300013290000010000004A0000000000000031
:100840003E2A000001000000CE030000000000006E
:100850006A2B0000010000000F00000000000000F3
:10086000042D000001000000C10200000000000093
:100870005B00000001000000822E0000000000006C
:100880008C2E0000010000004B2F00000000000033
:100890000A00000001000000143000000000000009
:1008A0001400000001000000DD3000000000000026
:1008B00033310000010000000A00000000000000C9
:1008C00014000000010000000B0000000000000008
:1008D000620000000100000038330000000000004A
:1008E00020000000010000003901000000000000AD
:1008F00009000000010000000202000000000000EA
:10090000040000000100000093350000000000001A
:1009100055390000010000003C000000000000000C
:10092000B0B30000010000007FF0010101617047D9
:10093000FEE7FEE7FEE7FEE7FEE770477047704719
:10094000704780B50E480188491C018000880D4918
:10095000086000200C49086047200C4908600C49D9
:10096000087800020B4A10600878002802D00020A6
:10097000087001E0012008700748FFF7D5FF01BDAE
:10098000040000202C2C0140302C0140282C014078
:10099000060000200C080140002C0140704730B4D4
:1009A00050F8041B79B10268436802440830DC0740
:1009B00044BFA9F10104E31852F8045B43F8045B57
:1009C000091FF9D1ECE730BC7047000010B50749AA
:1009D00079441831064C7C44163404E00A68081D3A
:1009E000114488470146A142F8D110BD080000001B
:1009F00018000000ABFFFFFF0800000070000000BF
:100A0000000000200000000000F00DF8002801D0D8
:100A1000FFF7DCFFAFF300800020AFF30080FFF7AB
:100A20004EFC00F002F80120704700F001B8000011
:100A30000746384600F002F8FBE7000080B5AFF348
:100A40000080024A11001820ABBEFBE7260002001E
:100A50000148804701480047190B0008610A000857
:100A6000AFF30080AFF30080FFF7CEFF0024F40067
:100A700001000000FFF7FEBFFFF7FEBFFFF7FEBF5C
:100A8000FFF7FEBFFFF7FEBFFFF7FEBFFFF7FEBF9A
:100A9000FFF7FEBFFFF7FEBFFFF7FEBFFFF7FEBF8A
:100AA000FFF7FEBFFFF7FEBFFFF7FEBFFFF7FEBF7A
:100AB000FFF7FEBFFFF7FEBFFFF7FEBFFFF7FEBF6A
:100AC000FFF7FEBFFFF7FEBFFFF7FEBFFFF7FEBF5A
:100AD000FFF7FEBFFFF7FEBFFFF7FEBFFFF7FEBF4A
:100AE000FFF7FEBFFFF7FEBFFFF7FEBFFFF7FEBF3A
:100AF000FFF7FEBFFFF7FEBFFFF7FEBFFFF7FEBF2A
:100B0000FFF7FEBFFFF7FEBFFFF7FEBFFFF7FEBF19
:0A0B1000FFF7FEBFFFF7FEBF7047BE
:0400000508000A6184
:00000001FF
