:020000040800F2
:100000002005002005010008170300085101000821
:10001000150300084D010008050400080000000059
:100020000000000000000000000000001B030008AA
:100030004F01000800000000190300081D0300081C
:100040001F0100081F0100081F0100081F01000810
:100050001F0100081F0100081F0100081F01000800
:100060001F0100081F0100081F0100081F010008F0
:100070001F0100081F0100081F0100081F010008E0
:100080001F0100081F0100081F0100081F010008D0
:100090001F0100081F0100081F0100081F010008C0
:1000A0001F010008BD0300081F0100081F01000810
:1000B000E90300081F0100081F0100081F010008D4
:1000C0001F0100081F0100081F0100081F01000890
:1000D0001F0100081F0100081F0100081F01000880
:1000E0001F0100081F0100081F010008DFF810D0E1
:1000F00000F01AF80048004725040008AFF300801C
:10010000200500200648804706480047FEE7FEE736
:10011000FEE7FEE7FEE7FEE7FEE7FEE7FEE7FEE7B7
:10012000B9030008ED000008064C074D06E0E06842
:1001300040F0010394E8070098471034AC42F6D32E
:10014000FFF7D8FF90070008B0070008FEE77047E8
:10015000FEE72DE9F04F0A68C2F30F2494FAA4F2E7
:10016000B2FA82F334FA03F27DD0012640F2011E86
:100170000F274FF003084FF0040B06FA03F2224258
:1001800070D0082B38BF0EFA03F207D3A3F1080C86
:100190004FF0011202FA0CF242F08062D1F810C066
:1001A000C5684FEA122999FAA9F9B9FA89F925EA35
:1001B00012250CFA09FC45EA0C0CC0F80CC000EB47
:1001C000126C92FAA2FABAFA8AFA4FEA8A0ADCF8B0
:1001D000009007FA0AFA29EA0A0992FAA2FA4D6887
:1001E000BAFA8AFA4FEA8A0A05FA0AF549EA0505CF
:1001F000CCF80050D1F80490B9F1010F18BFB9F153
:10020000090F2FD192FAA2FABAFA8AFA4FEA8A0AA9
:1002100008FA0AFA25EA0A0592FAA2FABAFA8AFA5A
:10022000D1F808904FEA8A0A09FA0AF992FAA2FA72
:1002300045EA0905CCF80050BAFA8AFA92FAA2F215
:100240004FEA8A0AB2FA82F2D1F80C900BFA0AFA53
:100250004FEA820225EA0A0509FA02F245EA020299
:10026000CCF8002000E004E003F1010334FA03F2CB
:1002700083D10020BDE8F08F4FF47A71B0FBF1F02C
:10028000411E4FF0E02041610021816105210161A3
:100290007047000001490860704700001801002005
:1002A00030B40268184BDFF864C0194C984218BF8C
:1002B000B0F1804F03D0604518BFA04204D14D6813
:1002C00022F0700242EA0502984218BFB0F1804F56
:1002D00003D0604518BFA04205D1D1F80CC022F46C
:1002E000407242EA0C0202608A68C2620A88826234
:1002F000984204BF09690163416941F0010141610C
:1003000030BC002070470000002C01400004004079
:1003100000080040FEE7FEE77047704770470000A6
:10032000224810B5016821F0070141F00201016087
:10033000016801F007010229FAD11D48016841F462
:1003400080310160016811F4003FFBD0416821F465
:100350007C1141F4E8114160016841F08071016055
:10036000016811F0007FFBD0416821F0F00141608D
:10037000416821F4E06141F480614160416821F409
:1003800060514160416821F0030141F00201416088
:10039000416801F00C010829FAD1064C2046FFF70C
:1003A0006BFF2046BDE81040FFF774BF00200240FD
:1003B0000010024000A24A047047000006496FF096
:1003C00001000860054800880549000208600549E9
:1003D0000120087070470000102C0140020000202E
:1003E0000C080140000000204FF080416FF0010038
:1003F00008610348C16881F40051C1607047000082
:1004000000100140FEE702E008C8121F08C1002AE0
:10041000FAD170477047002001E001C1121F002A85
:10042000FBD17047CD4D86B0A86940F00100A861AE
:10043000A86900F001000090E86940F08050E86190
:10044000E869DFF81CB300F080500090DBF8000092
:100450004FF6FF01084040F4407040F0FD7040F05E
:100460008060CBF80000BF484068BE4920F0E060E3
:100470004860486840F000704860FFF751FFBA4C90
:100480004FF00008A4F80480DFF8E0920127C9F8D3
:100490000070A4F8028009F1040ACAF80080A9F1EA
:1004A000040047260660CDF80C80CDF81080A869BE
:1004B00040F01000A861A86900F010000590A8693C
:1004C00040F02000A861A86900F020000590A8690C
:1004D00040F00400A861A869A54A00F00400059056
:1004E000A44879034161A44983150B61022100925C
:1004F000CDE901716946FFF72CFEA048CDE9000760
:10050000032002900020039069469B48FFF721FEDC
:1005100000200090019003900490A86940F40060CE
:10052000A861A869694600F400600590ADF8006014
:100530000A20934E02903046FFF7B2FE306840F03A
:1005400080003060B06820F0070020F48040B06088
:10055000706820F070007060B06820F08000B060BB
:10056000F06840F00100F0600020009001900290DF
:1005700003900490E86940F00100E861E86900F048
:100580000100059058460068C0F30220C0F1070141
:10059000042988BF0421021D072A34BF0020C01E81
:1005A00007FA01F1491E01F0010101FA00F0754955
:1005B000000181F800044FF0E0254FF08050C5F8AD
:1005C000000141F61F40ADF8000040F28260029049
:1005D00069464007FFF764FE4FF08040016841F034
:1005E00080010160816821F0070121F48041816070
:1005F000416821F070014160816821F080018160D3
:10060000C16841F00101C160DBF80010C1F30221B3
:100610000A1D072A34BF0021C91E08FA01F10A0188
:10062000594981F800244FF00071C5F80011316874
:1006300041F001013160016841F0010101604FF6B4
:10064000FE725249501C042394F800C0BCF1000F04
:10065000FAD0B4F804C051F83CC0CDF800C0B4F8EA
:1006600004C001EBCC0CBCF804C0ADF804C0DDF84C
:1006700000C0BCF1030F27D2BCF1000F06D0BCF1C3
:10068000010F09D0BCF1020F12D063E0B4F804C02E
:10069000BCF1210F46D35CE0BDF804C0A4F802C051
:1006A000C9F80070B4F804C0BCF1210F3AD350E08F
:1006B000BDF804C0A4F802C0C9F80070B4F804C0C2
:1006C000BCF1210F2ED344E084450FD2BDF804C005
:1006D000A4F802C0DDF800C0ACF1010CC9F800C0FC
:1006E000B4F804C0BCF1210F33D21BE094F801C070
:1006F000BCF1000F1DD084F80180DDF800C0BCFB08
:10070000F0F500FB15CCACF1010CC9F800C0CAF83B
:100710000080BDF804C0A4F802C0B4F804C0BCF165
:10072000210F16D2B4F804C00CF1010CA4F804C0D7
:1007300010E06770C9F80020DDF800C0BCFBF0FCD9
:10074000ACF1010CCAF800C0BDF804C0A4F802C0A6
:1007500000E0A38084F8008076E7000000100240EB
:100760000CED00E000000140000000202C2C0140B6
:100770002000200400100140000801400100010495
:10078000002C01401CE000E019E000E0080000201F
:10079000B0070008000000201C010000060400084B
:1007A000CC0800081C010020040400001604000806
:1007B0000000000000000000000000000000000039
:1007C0000A0000000100000087280000000000006F
:1007D00013290000010000004A0000000000000092
:1007E0003E2A000001000000CE03000000000000CF
:1007F0006A2B0000010000000F0000000000000054
:10080000042D000001000000C102000000000000F3
:100810005B00000001000000822E000000000000CC
:100820008C2E0000010000004B2F00000000000093
:100830000A00000001000000143000000000000069
:100840001400000001000000DD3000000000000086
:1008500033310000010000000A0000000000000029
:1008600014000000010000000B0000000000000068
:1008700062000000010000003833000000000000AA
:10088000200000000100000039010000000000000D
:10089000090000000100000002020000000000004A
:1008A000040000000100000093350000000000007B
:1008B00055390000010000003C000000000000006D
:0C08C000B0B30000010000000024F400B0
:04000005080000ED02
:00000001FF
